:020000040800F2
:1000000000500020E9790008056400080B6400082E
:1000100011640008176400081D6400080000000057
:100020000000000000000000000000002364000841
:100030002F640008000000003B64000847640008CB
:10004000317A0008317A0008317A0008317A0008E4
:10005000317A0008317A000853640008317A0008C8
:1000600061640008317A0008317A0008317A0008AA
:10007000317A000871640008317A0008856400084C
:1000800099640008317A0008AD640008317A0008EC
:10009000317A0008317A0008317A0008C16400081A
:1000A000317A0008317A0008317A0008317A000884
:1000B000317A0008317A0008317A0008317A000874
:1000C000317A0008317A0008317A0008317A000864
:1000D000317A0008E1640008F56400080965000849
:1000E0001D650008317A0008317A00080000000020
:1000F0000000000000000000000000000000000000
:0C01000000000000000000005FF808F1A3
:10010C0010B5054C237833B9044B13B10448AFF345
:10011C0000800123237010BDA80500200000000002
:10012C0080EA000808B5034B1BB103490348AFF341
:10013C00008008BD00000000AC05002080EA00082B
:10014C00034613F8012B002AFBD1181A013870470B
:10015C0010F8012B11F8013B012A28BF9A42F7D065
:10016C00D01A704742000ED2B2F1FE4F0BD34FF0B3
:10017C009E03B3EB126209D44FEA002343F0004311
:10018C0023FA02F070474FF00000704712F1610F34
:10019C0001D1420202D14FF0FF3070474FF0000006
:1001AC00704700BF7BB972B90029BEBF00204FF069
:1001BC00004106E008BF00281CBF6FF000414FF063
:1001CC00FF3000F0A9B9ADF1080C6DE904CE00299F
:1001DC0009DB002B1ADB00F035F8DDF804E0DDE973
:1001EC00022304B07047404261EB4101002B1BDB42
:1001FC0000F028F8DDF804E0DDE9022304B0404209
:10020C0061EB4101524263EB43037047524263EB93
:10021C00430300F017F8DDF804E0DDE9022304B035
:10022C00404261EB41017047524263EB430300F0E3
:10023C0009F8DDF804E0DDE9022304B0524263EB77
:10024C00430370472DE9F047089E0D460446884647
:10025C00002B4DD18A42944668D9B2FA82F252B13F
:10026C0001FA02F3C2F1200120FA01F10CFA02FCAE
:10027C0041EA030894404FEA1C41B8FBF1F71FFA1E
:10028C008CFE01FB178807FB0EF0230C43EA084396
:10029C0098420AD91CEB030307F1FF3580F01E814D
:1002AC00984240F21B81023F63441B1AB3FBF1F0EE
:1002BC0001FB103300FB0EFEA4B244EA0344A64536
:1002CC000AD91CEB040400F1FF3380F00981A64528
:1002DC0040F20681644402380021A4EB0E0440EA8B
:1002EC0007401EB10023D440C6E90043BDE8F087A7
:1002FC008B4208D9002E00F0EE800021C6E90005E3
:10030C000846BDE8F087B3FA83F100294AD1AB4225
:10031C0002D3824200F2FC80841A65EB03030120B5
:10032C009846002EE2D0C6E90048DFE702B9FFDEAE
:10033C00B2FA82F2002A40F09180A1EB0C0001216C
:10034C004FEA1C471FFA8CFEB0FBF7F307FB1300B8
:10035C00250C45EA00450EFB03F0A84208D91CEB1E
:10036C00050503F1FF3802D2A84200F2CE804346C5
:10037C002D1AB5FBF7F007FB10550EFB00FEA4B2CF
:10038C0044EA0544A64508D91CEB040400F1FF35EA
:10039C0002D2A64500F2B6802846A4EB0E0440EA31
:1003AC0003409EE7C1F120078B4022FA07FC4CEA80
:1003BC00030C25FA07FA4FEA1C49BAFBF9F820FAA4
:1003CC0007F309FB18AA8D401FFA8CFE1D4300FA97
:1003DC0001F308FB0EF02C0C44EA0A44A04202FA8A
:1003EC0001F20BD91CEB040408F1FF3A80F0888071
:1003FC00A04240F28580A8F102086444241AB4FBA0
:10040C00F9F009FB104400FB0EFEADB245EA0444C2
:10041C00A64508D91CEB040400F1FF356CD2A645A7
:10042C006AD90238644440EA0840A0FB0295A4EB68
:10043C000E04AC42C846AE4656D353D0002E69D0FB
:10044C00B3EB080264EB0E0422FA01F304FA07F78B
:10045C001F43CC40C6E90074002147E70CFA02FCAC
:10046C00C2F1200125FA01F34FEA1C4720FA01F1F1
:10047C0095400D43B3FBF7F107FB11331FFA8CFECC
:10048C00280C40EA034001FB0EF3834204FA02F409
:10049C0008D91CEB000001F1FF382FD283422DD973
:1004AC0002396044C01AB0FBF7F307FB1300ADB27E
:1004BC0045EA004503FB0EF0A84208D91CEB0505E4
:1004CC0003F1FF3816D2A84214D9023B6544281A0E
:1004DC0043EA014138E73146304607E72F46E4E668
:1004EC001846F9E64B45A9D2B9EB020865EB0C0EA0
:1004FC000138A3E74346EAE7284694E74146D1E7AB
:10050C00D0467BE76444023847E7023B65442FE75B
:10051C00084606E73146E9E6704700BF80B584B06F
:10052C0000AFF860B9607A6006F020FC084AFB68FE
:10053C001360084ABB681360074A7B681360054B5D
:10054C001B68184606F0CCFD00BF1037BD4680BDB9
:10055C00C4050020C8050020CC05002090B587B04C
:10056C0002AF0346FB71FA791A4B1B68DB689B6878
:10057C009A420AD9174B1B685A78164B1B685B8832
:10058C001946104606F0E2FE20E0124B1B68DB68B1
:10059C001B68FB600023FB7205E0FB685B6FFB6074
:1005AC00FB7A0133FB72FA7AFB799A42F5D3FB683A
:1005BC001878FB68197AFB685A88FB681C79FB6809
:1005CC00DB889BB20093234606F022FF1437BD460E
:1005DC0090BD00BFCC05002080B500AF024803F0F1
:1005EC0003FD00BF80BD00BFD405002080B483B0E4
:1005FC0000AF78607B68064A106818609188927921
:10060C0099809A7178680C37BD4680BC704700BFE2
:10061C00D405002090B583B000AF03F0AFF90346CA
:10062C00002B04D006F054FD002003F0B3F95C4B12
:10063C001B681B78092B00F2AD8001A252F823F045
:10064C00750600088B060008B9060008BF060008EE
:10065C00ED060008FB060008710700088507000876
:10066C004D070008290700084E4B1B685C7804F006
:10067C002DF903461946204606F044FD8BE0494B04
:10068C001B68D87C474B1B68197D464B1B685B7DF0
:10069C001A4603F0C3FE03461A46434B1A80424BDC
:1006AC001B88DBB2184606F0ADFD74E006F0EEFDDB
:1006BC0071E003F0F3F90346002B0AD1394B1B68A8
:1006CC009A79384B1B685B881946104606F03EFE3B
:1006DC0061E003F0E3F903461846FFF73FFF5AE0E9
:1006EC0003F09AF90346184606F03EFF53E003F078
:1006FC007DF803461C4603F02DF9034619462046A7
:10070C0006F06CFF03F0DAF803461C4603F078F8A9
:10071C0003461946204607F063F83CE003F066F800
:10072C000346184606F0BCFF03F0C8F803461C4607
:10073C0003F066F803461946204607F051F82AE004
:10074C0003F054F80346184606F0FAFF03F0B6F827
:10075C0003461C4603F054F803461946204607F09E
:10076C003FF818E0012007F06FF803F0FDF803469E
:10077C00184607F0AFF80EE03B461846FFF736FF79
:10078C0003F0F2F803461A463B4693E8030007F0E1
:10079C00BDF800E000BF00BF0C37BD4690BD00BFE8
:1007AC00C4050020CC050020D005002080B400AF8B
:1007BC0000BFBD4680BC704780B483B000AF78608A
:1007CC003960054A7B681360044A3B68136000BFBC
:1007DC000C37BD4680BC7047DC050020E0050020CE
:1007EC0080B500AF022004F0AFFD0346002B0BD008
:1007FC000121072004F0BCFE0121082004F0B8FE02
:10080C000021022004F0B4FE05F0AEFB0346012BE0
:10081C001ED1032004F098FD0346002B07D00121C4
:10082C000A2004F0A5FE0021032004F0A1FE0620FE
:10083C0004F08AFD0346002B0AD001210B2004F0A2
:10084C0097FE002005F080FB0021062004F090FEAE
:10085C0005F08AFB0346002B12D107F03DF9024646
:10086C00084B1B68D31A42F20F72934208D901212C
:10087C00092004F07DFE07F02FF90346014A1360AE
:10088C0000BF80BDE405002080B584B002AF786065
:10089C003960114A7B681360104A3B6813600F4B38
:1008AC001B68184604F004F80B4B18680B4B1B68BC
:1008BC0003F51973094A1268194600F021FC4FF42C
:1008CC007A730093012301220549064801F0D4FEF6
:1008DC0000BF0837BD4680BDE8050020EC050020B0
:1008EC0098EA00089CEA000880B483B000AF0E4B75
:1008FC001B68DB681B685B6F7B6008E07B685B7A5E
:10090C00002B01D001230AE07B685B6F7B60064BF8
:10091C001B68DB685B687A689A42EFD10023184643
:10092C000C37BD4680BC7047E805002080B582B00E
:10093C0002AF04F02FF90346002B05D10121012051
:10094C0004F016FE04F0B8FAAA4B1B689B7E002B31
:10095C000FD0012004F0F8FC0346002B09D0A64868
:10096C0004F09CFB0346002B03D00021012004F073
:10097C00FFFD002004F0E8FC0346002B01D000F042
:10098C0033FF082004F0E0FC0346002B02D00220C9
:10099C0001F018F80A2004F0D7FC0346002B07D00E
:1009AC00FFF7A2FF0346002B02D0052001F00AF846
:1009BC000B2004F0C9FC0346002B02D0072001F0E9
:1009CC0001F8092004F0C0FC0346002B02D00120E2
:1009DC0000F0F8FF042004F0B7FC0346002B06D00F
:1009EC00082000F0EFFF0021042004F0C1FD0520D9
:1009FC0004F0AAFC0346002B06D0092000F0E2FF0D
:100A0C000021052004F0B4FD0C2004F09DFC0346ED
:100A1C00002B30D0002002F023FC0346002B10D01A
:100A2C00744B1B6803F51A70724B1B68B3F8663273
:100A3C000122194601F0B4FB0021002002F0A0FCB9
:100A4C0015E0012002F00CFC0346002B0FD0694B83
:100A5C001B6803F55E70674B1B68B3F87633022294
:100A6C00194601F09DFB0021012002F089FC0021B8
:100A7C000C2004F07DFD0D2004F066FC0346002BD9
:100A8C0034D0032002F0ECFB0346002B12D0594B60
:100A9C001B6803F5B360574B1B68B3F8961501231D
:100AAC0000930223012201F09FFB0021032002F09E
:100ABC0067FC17E0042002F0D3FB0346002B11D097
:100ACC004C4B1B6803F5D5604A4B1B68B3F8A61654
:100ADC00012300930223022201F086FB0021042053
:100AEC0002F04EFC00210D2004F042FD0E2004F01B
:100AFC002BFC0346002B13D03E4B1B6803F5916275
:100B0C003C4B1B68B3F886341946104601F004FBC5
:100B1C000021022002F034FC00210E2004F028FDFC
:100B2C000F2004F011FC0346002B13D0314B1B6833
:100B3C0003F5F7622F4B1B68B3F8B637194610460E
:100B4C0001F00CFB0021052002F01AFC00210F2003
:100B5C0004F00EFD102004F0F7FB0346002B13D01D
:100B6C00244B1B6803F6D812224B1B68B3F8D639FA
:100B7C001946104601F060FB0021072002F000FC32
:100B8C000021102004F0F4FC112004F0DDFB0346DE
:100B9C00002B13D0174B1B6803F6C802154B1B68B0
:100BAC00B3F8C6381946104601F068FB0021062040
:100BBC0002F0E6FB0021112004F0DAFC0D4B1B685F
:100BCC0093F82C30012B12D10A4B1B68002283F8AE
:100BDC002C20084B1B6803F13800064B1B68B3F83C
:100BEC003812064B1B685B781A4601F055F900BFAA
:100BFC00BD4680BDEC050020A4EA0008E8050020F5
:100C0C0080B483B000AF7860034A7B68136000BF88
:100C1C000C37BD4680BC7047F005002080B584B011
:100C2C0000AF0346FB71FB79072B41D801A252F8A8
:100C3C0023F000BF610C0008690C00088D0C000843
:100C4C00750C0008810C0008990C0008B10C000808
:100C5C00A50C0008214B1B68FB602AE01F4B1B688E
:100C6C0003F58873FB6024E01C4B1B6803F54C7385
:100C7C00FB601EE0194B1B6803F58863FB6018E0F2
:100C8C00164B1B6803F50873FB6012E0134B1B68D3
:100C9C0003F5AA63FB600CE0104B1B6803F5EE63D5
:100CAC00FB6006E00D4B1B6803F5CC63FB6000E0BA
:100CBC0000BFFB68002B01D100230AE0FB68181D64
:100CCC00FB685988FB6803F582731A4602F02EFD07
:100CDC00012318461037BD4680BD00BFF00500202B
:100CEC0080B500AF02F094F9002002F0B9FA034687
:100CFC00002B05D1012002F0B3FA0346002B03D0E0
:100D0C0001210C2004F034FC032002F0A9FA034664
:100D1C00002B05D1042002F0A3FA0346002B03D0CC
:100D2C0001210D2004F024FC022002F099FA034664
:100D3C00002B03D001210E2004F01AFC052002F038
:100D4C008FFA0346002B03D001210F2004F010FC76
:100D5C00072002F085FA0346002B03D00121102056
:100D6C0004F006FC062002F07BFA0346002B03D0AD
:100D7C000121112004F0FCFB052002F08FFB03463F
:100D8C00002B06D00520FFF749FF0021052002F0BB
:100D9C0015FC072002F082FB0346002B06D007202F
:100DAC00FFF73CFF0021072002F008FC062002F0B0
:100DBC0075FB0346002B06D00620FFF72FFF002102
:100DCC00062002F0FBFB00BF80BD000080B582B0A6
:100DDC0000AF7860054A7B6813600549054800F050
:100DEC000BF800BF0837BD4680BD00BFF4050020DE
:100DFC0068300020942F002080B582B000AF78605E
:100E0C003960064A7B681360054A3B68136000F042
:100E1C001DF800BF0837BD4680BD00BFF805002097
:100E2C00FC05002080B483B000AF78603960054ABF
:100E3C007B681360044A3B68136000BF0C37BD46E7
:100E4C0080BC70470C0D0020100D002080B500AF49
:100E5C00094B1B684FF48072084918460AF01FF8BA
:100E6C00074B1B681B681A68054B1B681B6822F034
:100E7C0004021A6000BF80BDF805002000060020A7
:100E8C00FC05002080B584B000AF0346FB80434BCB
:100E9C001A88434B1A80424B1B881A46FB88134412
:100EAC00B3F5806F23DD3E4B1B88DBB25B42FB73DB
:100EBC003B4B1B881A463B4B1344FA7B3A4918466A
:100ECC000BF0B4F8364B00221A80FB7B364A99188B
:100EDC00FA88FB7BD31A1A4632480BF0A7F8FB7B37
:100EEC009BB2FA88D31A9AB22C4B1A8010E02C4B76
:100EFC001B881A462B4B1344FA882B4918460BF0C7
:100F0C0095F8274B1A88FB8813449AB2234B1A8006
:100F1C00264B1B881A46FB881344B3F5806F07DAFF
:100F2C00224B1A88FB8813449AB2204B1A8009E092
:100F3C001E4B1A88FB8813449BB2A3F580639AB2AC
:100F4C001A4B1A80072004F0FFF90346002B13D02C
:100F5C004FF40072002116480BF076F8FB881A4605
:100F6C00114913480BF062F8124AFB881380124B9C
:100F7C001B68184600F026F8FFF768FFFB880F4A3D
:100F8C001946094804F0D2F80346002B02D00C4B4A
:100F9C0001221A7000BF1037BD4680BD020D002023
:100FAC00000D00200007002000060020040D00208A
:100FBC00000B0020060D0020100D0020B8EA0008E0
:100FCC00080D002080B58CB002AF7860786803F013
:100FDC000BF8034683F00103DBB2002B01D0002396
:100FEC0065E0354B1B88FB84FB8C344A194634482E
:100FFC0004F09CF838623B6A002B01D1002356E0C8
:10100C00FB8C1A462E49386A04F00FF90346FB8311
:10101C00FA8B07F11403009313463A6A29492A48BC
:10102C0004F0B0F80346062B01D000233FE0BB8A46
:10103C003B8207F1140302331B889BB2BB8107F17F
:10104C00140304331B889BB23B8107F11003184631
:10105C000AF08EFE0346DBB20733DAB27B681A71F4
:10106C0007F10C0318460AF083FE0346DAB27B68DC
:10107C005A7107F1080318460AF07AFE0346DAB2F1
:10108C007B689A71786803F02BF8034683F00103B0
:10109C00DBB2002B01D0002309E04FF480610B4838
:1010AC0007F092FE0021072004F062FA0123184693
:1010BC002837BD4680BD00BF060D00201CEB000884
:1010CC00000B002024EB000828EB0008000801406E
:1010DC0090B583B000AF7860084B1C687868FFF758
:1010EC002FF803469AB24FF47A737968204609F0C8
:1010FC0053FE00BF0C37BD4690BD00BF140D002041
:10110C0080B485B000AFF860B9607A60064AFB68BD
:10111C001360064ABB681360054A7B68136000BF06
:10112C001437BD4680BC7047181100201C110020DC
:10113C002011002080B483B000AF78607B681B78EE
:10114C001A067B6801331B781B041A437B68023335
:10115C001B781B0213437A68033212781343184628
:10116C000C37BD4680BC704780B584B000AF78604A
:10117C000B46FB70FB781946786804F0C9FBF860E5
:10118C0007F108031946F86804F08FF8FB787A68C1
:10119C001344BA681A60042318461037BD4680BD44
:1011AC0080B588B000AF78600B467B8007F11003E8
:1011BC00184602F019FF0346002B14D007F1100358
:1011CC00184602F0E6FEC7E90601BB6907F10C02FE
:1011DC001146184604F069F87B887A681344FA685B
:1011EC001A60012300E0002318462037BD4680BD5D
:1011FC0080B584B000AF0346FB710B46BB71134640
:10120C007B714FF48062002117480AF01DFF002308
:10121C00FB73164B1A68FB7B591CF97319465278F1
:10122C00114B5A54FB7B5A1CFA7319460E4AFB7924
:10123C005354BB79002B07D0FB7B5A1CFA7319460D
:10124C00094ABB79535409E07B79002B06D0FB7B10
:10125C005A1CFA731946044A7B795354FB7B184683
:10126C001037BD4680BD00BF180D0020181100209E
:10127C0080B584B000AF78600B46FB700023FB8117
:10128C00544B1B68DB681B685B6FBB6095E0FB789D
:10129C00013B062B00F28B8001A252F823F000BF19
:1012AC00031300085B130008BB130008C9120008E5
:1012BC0081130008BB130008BB130008FB895A1CE0
:1012CC00FA811A467B681344BA6812781A70BB68A4
:1012DC005A88FB89591CF98119467B680B44D2B298
:1012EC001A70FB895A1CFA811A467B681344BA6837
:1012FC0012791A705EE0FB895A1CFA811A467B68D7
:10130C001344BA6812781A70BB685A88FB89591C46
:10131C00F98119467B680B44D2B21A70BB68DB8822
:10132C009BB21B0A9AB2FB89591CF98119467B683E
:10133C000B44D2B21A70BB68DB889AB2FB89591C79
:10134C00F98119467B680B44D2B21A7032E0FB89E2
:10135C005A1CFA811A467B681344BA6812781A70C0
:10136C00FB895A1CFA811A467B681344BA68127AB4
:10137C001A701FE0BB685B7A002B1AD0FB895A1CD1
:10138C00FA811A467B681344BA6812781A70FB8982
:10139C007A68D018BB680C33642219460AF046FEF2
:1013AC00FB896433FB81BB6801229A7201E000BFA8
:1013BC0000E000BFBB685B6FBB60064B1B68DB6863
:1013CC005B68BA689A427FF462AFFB8918461037A3
:1013DC00BD4680BD1811002090B585B000AF786077
:1013EC000B46FB700023FB73FB78013B082B00F2D0
:1013FC00078101A252F823F0C51400089F140008BD
:10140C000D160008291400083B1500080D160008DD
:10141C00B1150008E3150008F71500087B4B1A6896
:10142C00FB7B591CF97319467B680B4452781A7074
:10143C00764B1B685B881B0A9AB2FB7B591CF973B1
:10144C0019467B680B44D2B21A70704B1B685A88D1
:10145C00FB7B591CF97319467B680B44D2B21A708A
:10146C006A4B1B689B881B0A9AB2FB7B591CF9734D
:10147C0019467B680B44D2B21A70644B1B689A886D
:10148C00FB7B591CF97319467B680B44D2B21A705A
:10149C00B7E05E4B1A68FB7B591CF97319467B68E5
:1014AC000B4452781A70FB7B5A1CFA731A467B68F1
:1014BC00134401221A70A4E0544B1A68FB7B591C8C
:1014CC00F97319467B680B4452781A704F4B1B68A2
:1014DC005B881B0A9AB2FB7B591CF97319467B6813
:1014EC000B44D2B21A70494B1B685A88FB7B591CAF
:1014FC00F97319467B680B44D2B21A70434B1B68C4
:10150C009B881B0A9AB2FB7B591CF97319467B68A2
:10151C000B44D2B21A703D4B1B689A88FB7B591C4A
:10152C00F97319467B680B44D2B21A7069E0374BD9
:10153C001A68FB7B591CF97319467B680B4452786B
:10154C001A70324B1B685B881B0A9AB2FB7B591CC6
:10155C00F97319467B680B44D2B21A702B4B1B687B
:10156C005A88FB7B591CF97319467B680B44D2B221
:10157C001A70264B1B689B881B0A9AB2FB7B591C62
:10158C00F97319467B680B44D2B21A701F4B1B6857
:10159C009A88FB7B591CF97319467B680B44D2B2B1
:1015AC001A702EE0194B1B685B881B0A9AB2FB7BE6
:1015BC00591CF97319467B680B44D2B21A70134B41
:1015CC001B685A88FB7B591CF97319467B680B44C2
:1015DC00D2B21A7015E00D4B1A68FB7B591CF973CB
:1015EC0019467B680B4492791A70FB7B5A1CFA7370
:1015FC001A467B689C1802F0F9F80346237000E049
:10160C0000BFFB7B18461437BD4690BD1811002057
:10161C0080B584B000AF78600B46FB700023FB8173
:10162C00FB7819467868FFF7D7FE0346FB81FB89E8
:10163C007A681344FA7811461846FFF719FE0346E8
:10164C001A46FB891344FB81FB8919467868FFF71E
:10165C00A7FD0346002B01D1002304E0FB890433D2
:10166C00FB81FB89DBB218461037BD4680BD80B5C7
:10167C0084B000AFF8607A601A460B467B81134643
:10168C003B817B89FA6813443A89796818460AF0D9
:10169C00CDFC3B89DBB218461037BD4680BD00003F
:1016AC0080B586B000AFB9607A601A460346FB730A
:1016BC001346BB810023FB75FB7B033B082B00F21D
:1016CC008D8001A252F823F0F916000815170008B6
:1016DC00E9170008E9170008311700085F17000820
:1016EC00E9170008B1170008CD170008FB7DBA6890
:1016FC001344BA89796818460AF098FCBB89DAB2A7
:10170C00FB7D1344FB756AE0FB7DBA681344BA8910
:10171C00796818460AF08AFCBB89DAB2FB7D13445F
:10172C00FB755CE0FB7D5A1CFA751A46BB681344CA
:10173C0097F820201A70FB7DBA681344BA8979682F
:10174C0018460AF073FCBB89DAB2FB7D1344FB75B7
:10175C0045E0FB7D5A1CFA751A46BB68134497F892
:10176C0024201A70FB7D5A1CFA751A46BB68134468
:10177C0097F828201A70FB7D5A1CFA751A46BB681C
:10178C00134497F82C201A70FB7DBA681344BA895D
:10179C00796818460AF04AFCBB89DAB2FB7D13441F
:1017AC00FB751CE0FB7DBA681344BA89796818464E
:1017BC000AF03CFCBB89DAB2FB7D1344FB750EE0EE
:1017CC00FB7DBA681344BA89796818460AF02EFC76
:1017DC00BB89DAB2FB7D1344FB7500E000BFFB7DD7
:1017EC0018461837BD4680BD80B582B000AF4FF4A7
:1017FC0080700AF0FBFB03467B6000237B80002299
:10180C000421F520FFF7F4FC03467B807B88002B3A
:10181C0004D178680AF0F2FB002339E004217868DF
:10182C00FFF7F6FE03467B707B78002B04D17868BB
:10183C000AF0E4FB00232BE07B789BB279887A6872
:10184C001548FFF714FF03469AB27B8813447B803C
:10185C007B88DBB219461048FFF786FC03469AB228
:10186C007B8813447B807B881A460B490B4803F01A
:10187C009BFB0346002B07D00948FFF729FC78682F
:10188C000AF0BCFB012303E078680AF0B7FB0023E5
:10189C0018460837BD4680BD180D00202CEB0008FB
:1018AC0040EB000890B5C9B004AF044607F588704A
:1018BC00A0F5887001601046194607F58873A3F2ED
:1018CC00091322461A7007F58873A3F5867302462E
:1018DC001A8007F58873A3F585730A461A700023DE
:1018EC0087F80F3107F58873A3F209131B781A4692
:1018FC000021F220FFF77CFC034687F80F3197F8A4
:10190C000F31002B01D1002352E007F58873A3F5AA
:10191C0086731C8807F58873A3F5887207F10C0190
:10192C0007F58873A3F20913187897F828310393F5
:10193C0097F82431029397F82031019307F58873B7
:10194C00A3F585731B78009323461268FFF7A8FE56
:10195C00034687F80E3197F80F3199B297F80E318C
:10196C009BB207F10C021548FFF781FE03461A469D
:10197C0097F80F31134487F80F3197F80F31194648
:10198C000E48FFF7F1FB03461A4697F80F31134444
:10199C0087F80F3197F80F319BB21A460749084860
:1019AC0003F002FB0346002B01D1002300E00123CE
:1019BC00184607F58A77BD4690BD00BF180D00206C
:1019CC002CEB000880B5ADF5826D00AF024607F533
:1019DC008263A3F209431A700023A7F80E3407F1AF
:1019EC000C034FF48062002118460AF02DFB4FF4D3
:1019FC008062002126480AF027FB07F58263A3F2D8
:101A0C0009431B7800221946F120FFF7F1FB03462E
:101A1C00A7F80C3407F58263A3F209431A7807F18F
:101A2C000C0311461846FFF7F3FD0346A7F80E34D6
:101A3C00B7F80E3407F10C02B7F80C141448FFF782
:101A4C0016FE03469AB2B7F80C341344A7F80C34BC
:101A5C00B7F80C34DBB219460D48FFF785FB03468B
:101A6C009AB2B7F80C341344A7F80C34B7F80C340A
:101A7C001A460749074803F097FA0346002B01D191
:101A8C00002300E00123184607F58267BD4680BDA0
:101A9C00180D00202CEB000890B583B000AF7860D7
:101AAC000B467B807B88043B7A6813441846FFF70F
:101ABC0041FB04467B88043B1946786803F028FFF9
:101ACC0003469C4201D0002300E0012318460C374A
:101ADC00BD4690BD80B483B000AF78600B46FB7000
:101AEC007B681B78FA789A4205D07B681B78FF2BB1
:101AFC0001D0002300E0012318460C37BD4680BC02
:101B0C00704780B483B000AF78607B6801331B787A
:101B1C0018460C37BD4680BC704780B483B000AF0C
:101B2C0078607B6802331B7818460C37BD4680BC46
:101B3C00704780B483B000AF78607B6803331B7848
:101B4C0018460C37BD4680BC704780B483B000AFDC
:101B5C0078607B6802331B7818460C37BD4680BC16
:101B6C007047000090B58BB006AF78600B467B8059
:101B7C000323FB73FB7B5A1CFA731A467B681344D2
:101B8C001B78BB73FB7B5A1CFA731A467B68134495
:101B9C001B787B73FB7B5A1CFA731A467B681344C5
:101BAC001B783B73FB7B5A1CFA731A467B681344F5
:101BBC001B78FB72154B1B6803F5F7634FF48072AF
:101BCC00002118460AF040FA114B1B6803F25450DE
:101BDC00BC7B7B7B3A7BF97A05910E49049103928D
:101BEC000D4A029201930D4B009323460C4A0D496A
:101BFC000AF0CEFD03463B81054B1B683A89A3F8DE
:101C0C00522500BF1437BD4690BD00BF20110020E7
:101C1C001C110020B0EB0008CCEB0008F0EB000826
:101C2C0068EB000890EB000880B584B000AF7860DA
:101C3C000B467B800323FB737B88043BBB81FB7BC4
:101C4C005A1CFA731A467B6813441B78FB72FB7A96
:101C5C00012B02D0022B55D0AAE0584B1B68002256
:101C6C00A3F8722748E0554B1B6803F27473534A70
:101C7C001268B2F872279818FB7B7A6813441B78A9
:101C8C001A464F490AF084FD0346BB724B4B1B6846
:101C9C00B3F87217BB7A9AB2484B1B680A4492B2DB
:101CAC00A3F87227FB7B0133FB73FB7B7A6813442D
:101CBC00184603F0E3FA03463B81404B1B6803F2E2
:101CCC0074733E4A1268B2F8722713443A893D493C
:101CDC0018460AF05DFD0346BB72384B1B68B3F81F
:101CEC007217BB7A9AB2354B1B680A4492B2A3F8AE
:101CFC007227FB7B0233FB73FB7B9BB2BA899A4244
:101D0C00B1D855E02D4B1B6803F274732B4A126843
:101D1C00B2F872279818FB7B7A6813441B781A4622
:101D2C0029490AF035FD0346BB72244B1B68B3F8F6
:101D3C007217BB7A9AB2214B1B680A4492B2A3F871
:101D4C007227FB7B0133FB73FB7B5A1CFA731A461D
:101D5C007B6813441B78012B01D0022B00E000BFE1
:101D6C00FB7B7A681344184603F088FA03463B81E0
:101D7C00124B1B6803F27473104A1268B2F8722784
:101D8C0013443A890F4918460AF002FD0346BB7208
:101D9C000A4B1B68B3F87217BB7A9AB2074B1B68D5
:101DAC000A4492B2A3F87227FB7B0233FB7300BF89
:101DBC00FB7A18461037BD4680BD00BF1C110020B1
:101DCC0010EC000818EC00081CEC000880B485B07E
:101DDC0000AF78600023FB737B6803331B78012B07
:101DEC0004D0022B05D10223FB7303E00123FB7308
:101DFC0000E000BF044B1B68FA7B9A71FB7B184612
:101E0C001437BD4680BC70471811002080B584B0D3
:101E1C0000AF78607B68DB78FB73FB7B002B02D117
:101E2C00FB7B032B31D87B681B79BB73BB7B002BF3
:101E3C0002D1BB7B032B2AD807F108030322002114
:101E4C0018460AF001F97B6805331B889BB23B816D
:101E5C0007F10803184603F011FA0346BB81FB7B1C
:101E6C00184601F0D7FCBB7B184601F053FDBB7B39
:101E7C00012B05D1BB89DBB2184601F03BFD07E015
:101E8C00BB89184601F026FD02E000BF00E000BF50
:101E9C001037BD4680BD0000B0B58AB002AF786087
:101EAC000B467B8013467B707B8819467868FFF75E
:101EBC00F3FD0346002B00F022817B7819467868ED
:101ECC00FFF708FE0346002B00F01B817868FFF734
:101EDC0018FE0346FB77FB7FF13B052B00F21381C9
:101EEC0001A252F823F000BF0D1F0008871F000845
:101EFC0041200008DF20000813210008F72000080B
:101F0C007868FFF70AFE0346FB75FB7D032B02D0B6
:101F1C00062B0AD030E07B8819467868FFF722FE42
:101F2C000121052001F04AFB26E07B8819467868E0
:101F3C00FFF77AFE0346BB7504F016F80346002B38
:101F4C0006D0012B14D10121062003F011FB12E065
:101F5C00BB7D022B04D10121062001F02FFB09E0EF
:101F6C00BB7D012B06D10021072001F027FB01E0EE
:101F7C0000BF00E000BF00BFC8E07868FFF7E5FDD8
:101F8C000346BB77BB7F013B072B51D801A252F80C
:101F9C0023F000BFC11F0008CB1F00083D20000824
:101FAC003D2000083D2000083D2000081D200008B1
:101FBC002D2000080121022003F0DAFA39E07B68B9
:101FCC000333184603F093F9B861BB6900221C4631
:101FDC00154607F10C031A462046294601F09EFFD0
:101FEC004C4B1B683A7CDA744A4B1B687A7C1A752A
:101FFC00484B1B68BA7C5A7502F05EF9B97B3A7C87
:10200C00787CBB7C00930346002002F0B5F810E00E
:10201C007868FFF7DBFE0346184600F04BF908E042
:10202C007868FFF7F3FE0121062003F0A1FA00E027
:10203C0000BF6BE07868FFF77CFD03467B777B7F06
:10204C00013B062B3BD801A252F823F07520000867
:10205C0089200008CB200008CB2000089D20000818
:10206C00CB200008B12000087B6802331B78012BC1
:10207C0027D10021092003F07BFA22E07B68023390
:10208C001B78012B1FD10021082003F071FA1AE0F4
:10209C007B6802331B78012B17D100210A2003F037
:1020AC0067FA12E07B6802331B78012B0FD10021F9
:1020BC000B2003F05DFA002003F046FF07E000BFA1
:1020CC0024E000BF22E000BF20E000BF1EE000BF04
:1020DC001CE07868FFF739FD0346BB77BB7F072B05
:1020EC0001D0082B00E000BF10E07B6802331B78A6
:1020FC00012B0AD10021002003F03AFA05E000BFC1
:10210C0004E000BF02E000BF00E000BF2037BD4686
:10211C00B0BD00BF1811002080B586B004AF786048
:10212C000B467B807A8800230293032301930323BD
:10213C000093002379680320FFF7B4FB0346002BC0
:10214C0004D00548FEF7C4FF012300E00023184625
:10215C000837BD4680BD00BF2CEC000880B586B0AA
:10216C0004AF78600B467B807A88002302930323AC
:10217C00019303230093002379680420FFF792FB5B
:10218C000346002B04D00548FEF7A2FF012300E014
:10219C00002318460837BD4680BD00BF54EC00082C
:1021AC0080B586B004AF78600B467B8013467B709D
:1021BC007B787A88002102910321019103210091FF
:1021CC0079680720FFF76EFB0346002B04D0054807
:1021DC00FEF77EFF012300E0002318460837BD46BA
:1021EC0080BD00BF7CEC000880B586B004AF786081
:1021FC00084611461A4603467B800B467B701346F5
:10220C003B707A883B7C02933B7801937B780093FC
:10221C00002379680820FFF745FB0346002B04D008
:10222C000448FEF755FF012300E000231846083749
:10223C00BD4680BDA4EC000880B586B004AF7860C4
:10224C000B467B807A88002302930323019303239C
:10225C000093002379680420FFF724FB0346002B2E
:10226C0004D00548FEF734FF012300E00023184694
:10227C000837BD4680BD00BFD4EC000880B586B0E1
:10228C0004AF78600B467B807A880023029303238B
:10229C00019303230093002379680420FFF702FBCA
:1022AC000346002B01D0012300E000231846083719
:1022BC00BD4680BD80B582B000AF0346FB71FB7993
:1022CC00012B02D0022B06D00BE001221021094871
:1022DC0006F062FD05E000221021064806F05CFDC8
:1022EC0000BF0121042003F043F9FB79184608379D
:1022FC00BD4680BD0008014080B584B000AFF860D9
:10230C00B9607A60074A7B681360074AFB68136000
:10231C00064ABB68136000F00BF800BF1037BD46CF
:10232C0080BD00BF2C11002024110020281100209A
:10233C0080B500AF094B1B684FF4807208491846F2
:10234C0008F0ADFD074B1B681B681A68054B1B6832
:10235C001B6822F004021A6000BF80BD241100200B
:10236C00341300202811002080B584B000AF034640
:10237C00FB80564B1A88564B1A80554B1B881A46B5
:10238C00FB881344B3F5007F22DD514B1B88C3F54A
:10239C000073FB814E4B1B881A464E4B1344FA8933
:1023AC004D49184609F042FE494B00221A80FB8920
:1023BC00494A9918FA88FB89D31A1A46454809F0F4
:1023CC0035FEFA88FB89D31A9AB2404B1A8010E07A
:1023DC003F4B1B881A463F4B1344FA883E4918461C
:1023EC0009F024FE3A4B1A88FB8813449AB2374BF7
:1023FC001A803A4B1B881A46FB881344B3F5007FAE
:10240C0007DA364B1A88FB8813449AB2334B1A807E
:10241C0009E0324B1A88FB8813449BB2A3F5007376
:10242C009AB22E4B1A80FFF783FFFB882C4A194671
:10243C00294802F07BFE0346002B02D0294B0122D7
:10244C001A70FB88284A1946234802F06FFE03468F
:10245C00002B08D0FB881A461F49244809F0E6FDDA
:10246C00234AFB881380FB88224A19461A4802F03B
:10247C005DFE0346002B08D0FB881A4616491B4804
:10248C0009F0D4FD1A4AFB881380FB881A4A1946B6
:10249C00114802F04BFE0346002B13D0FB88174A61
:1024AC0019460D4802F042FE0346002B0AD0FB8869
:1024BC001A460949124809F0B9FDFB88194610481B
:1024CC0002F026FB00BF1037BD4680BD3211002044
:1024DC003011002034110020341300203417002058
:1024EC0008ED00083817002014ED00083414002003
:1024FC003A1700201CED000824ED000834ED00080C
:10250C003415002080B5ADF5047D00AF07F50473DC
:10251C00A3F5037318600A4607F50473A3F20E23A0
:10252C001A80022387F80B3207F50473A3F20E23EB
:10253C0007F50472A2F20E2212884A49A1FB02127C
:10254C0052091A80002387F80F3207F108034FF461
:10255C0000720021184609F077FD0023A7F80C3211
:10256C0073E007F50473A3F20E231B88184605F0DD
:10257C00BDFA3D4B1A883D4B1B889A4215D93A4BF4
:10258C001B88DAB2394B1B88DBB2D31A87F80F32AF
:10259C00364B1B881A46364BD11897F80F2207F189
:1025AC000803184609F042FD2AE02F4B1A882F4BDE
:1025BC001B889A4243D22C4B1B88DAB22B4B1B88BC
:1025CC00DBB2D31A87F80F32284B1B881A46284BDC
:1025DC00D118264B1B88C3F500731A4607F1080364
:1025EC00184609F023FD214B1B88C3F5007307F136
:1025FC00080213441C4A12881D49184609F016FD9E
:10260C0097F80F3299B207F50473A3F5037307F12A
:10261C0008001A6802F08AFD0346002B01D0012342
:10262C001AE097F80F3299B207F10803114A1846CD
:10263C0002F07CFD0346002B02D000230CE000BF0F
:10264C00B7F80C320133A7F80C32B7F80C32B3F5EB
:10265C00FA7F86D397F80B32184607F50477BD46F8
:10266C0080BD00BFD34D62103417002036170020F8
:10267C003411002044ED000880B59EB000AFF86026
:10268C00B96011461A460B46FB711346BB7107F134
:10269C001003FA68154918460AF07AF8034687F8C9
:1026AC007730134B186897F877309AB207F110010E
:1026BC004FF6FF7308F070FBFB79012B11D1D7F8A3
:1026CC0080309BB21946B868FFF71CFF034687F8A9
:1026DC007630BB79012B01D100F00CF897F87630ED
:1026EC0000E0022318467837BD4680BD4CED00084B
:1026FC002411002080B400AF034B1A88034B1A80BE
:10270C0000BFBD4680BC7047341700203617002030
:10271C0080B586B000AFF8607A603B600B467B8179
:10272C000023FB827B897A681946F86802F0FEFC6C
:10273C0038613B69002B01D1002315E07868FDF767
:10274C00FFFC02463B6913443B617B891A46F968DE
:10275C00386902F06AFD0346FB82FB8A1A46396926
:10276C00386809F063FCFB8A18461837BD4680BDF3
:10277C002DE9F0438BB002AF78600B467B806B4643
:10278C001E4679880B46013BBB618BB200229846F2
:10279C0091464FF000024FF000034FEAC90343EAA1
:1027AC0058734FEAC8028BB200221C4615464FF0F4
:1027BC0000024FF00003EB0043EA5473E2000B46B7
:1027CC000733DB08DB00ADEB030D02AB00337B61A1
:1027DC0079887B69164A7868FFF79AFF0346FB8372
:1027EC00FB8B002B07D179887B69124A7868FFF73D
:1027FC008FFF0346FB83FB8B002B01D1002310E0E2
:10280C00FA8B07F10803009313467A690A490B48BF
:10281C0002F0B8FC07F10803184609F0A9FA0346C0
:10282C009BB2B54618462437BD46BDE8F08300BFC1
:10283C0054ED000814ED00085CED000860ED000894
:10284C002DE9F0438BB002AFF8600B467A607B81C8
:10285C006B461E4679890B46013BBB618BB200224D
:10286C00984691464FF000024FF000034FEAC9031F
:10287C0043EA58734FEAC8028BB200221C46154635
:10288C004FF000024FF00003EB0043EA5473E200F8
:10289C000B460733DB08DB00ADEB030D02AB00335B
:1028AC007B6179897B69134AF868FFF731FF03462E
:1028BC00FB83FB8B002B07D179897B690E4AF86867
:1028CC00FFF726FF0346FB83FB8B002B01D1002374
:1028DC000AE0FA8B7B68009313467A69074908482B
:1028EC0002F050FC0346DBB2B54618462437BD4611
:1028FC00BDE8F0831CED000864ED00086CED0008E9
:10290C0070ED00082DE9F0438BB002AFF8600B4678
:10291C007A607B816B461E4679890B46013BBB6115
:10292C008BB20022984691464FF000024FF0000304
:10293C004FEAC90343EA58734FEAC8028BB200222C
:10294C001C4615464FF000024FF00003EB0043EA23
:10295C005473E2000B460733DB08DB00ADEB030DD1
:10296C0002AB00337B6179897B69134AF868FFF706
:10297C00CFFE0346FB83FB8B002B07D179897B6948
:10298C000E4AF868FFF7C4FE0346FB83FB8B002B53
:10299C0001D1002309E0FA8B7B68009313467A6916
:1029AC000749084802F0EEFB0346B54618462437A3
:1029BC00BD46BDE8F08300BF1CED000864ED0008C7
:1029CC0074ED000878ED000880B586B000AFF860B3
:1029DC00B9607A60FB707968F86809F0F9FE786183
:1029EC0000237B821BE0786909F0C2F903463B8225
:1029FC00FA783B8A1146184602F0BCFE0346002BBF
:102A0C0008D07B8A5A1C7A821A46BB6813443A8ACD
:102A1C00D2B21A707968002009F0DAFE78617B690D
:102A2C00002BE0D17B8A18461837BD4680BD0000CC
:102A3C002DE9F04393B002AFB9607B600346FB73A2
:102A4C001346BB816B461E46B9890B46013B7B6224
:102A5C008BB20022984691464FF000024FF00003D3
:102A6C004FEAC90343EA58734FEAC8028BB20022FB
:102A7C001C4615464FF000024FF00003EB0043EAF2
:102A8C005473E2000B460733DB08DB00ADEB030DA0
:102A9C0002AB00333B6200237B877868FDF750FB69
:102AAC000346FB77002387F82F30002387F82E305E
:102ABC00002387F82D30012387F82C30FB7B072B64
:102ACC007CD801A252F823F0F52A0008112B00083B
:102ADC00652B0008492B00082D2B00087B2B0008C8
:102AEC00A72B00088B2B0008814BFB63814B1B68C9
:102AFC0003F519733B63012387F82F30012387F803
:102B0C002E305CE07C4BFB637A4B1B6803F55D73EA
:102B1C003B63012387F82F30012387F82E304EE0DA
:102B2C00764BFB63734B1B6803F2A4633B6301237B
:102B3C0087F82F30012387F82E3040E0704BFB6371
:102B4C006C4B1B6803F294533B63012387F82F30C3
:102B5C00012387F82E3032E06A4BFB63654B1B6810
:102B6C0003F284433B63012387F82E3027E0664B46
:102B7C00FB63604B1B6803F2B4733B631FE0634B56
:102B8C00FB635C4B1B6803F6D4133B63012387F890
:102B9C002F30012387F82D3011E05D4BFB63554B33
:102BAC001B6803F6C4033B63012387F82F30012312
:102BBC0087F82D30022387F82C3000E000BFFB6B28
:102BCC00002B01D100238CE0BB89FA6B1946B86845
:102BDC0002F0ACFA78637B6B002B01D1002380E010
:102BEC00BB891A46B968786B02F01FFB03463B871A
:102BFC0097F82F30002B39D097F82D30002B0CD0B4
:102C0C003A8F3B6A009313467A6B4249424802F072
:102C1C00B9FA034687F82B300BE03A8F3B6A0093E6
:102C2C0013467A6B3C493C4802F0ACFA034687F8F1
:102C3C002B30F86BFDF784FA024697F82B301344CF
:102C4C0001337A6B13447B63BB891A46B968786B82
:102C5C0002F0EBFA03463B873B6B191D97F82C30BF
:102C6C002E4A386AFFF7B0FE03467B8797F82E3062
:102C7C00002B1CD03A8F07F11003009313467A6B8C
:102C8C002449254802F07EFA07F11003184609F092
:102C9C006FF80346BB833B6B1A1D7B8F1344BA8BB7
:102CAC001146184602F0D4FA7B8F02337B873B6BBC
:102CBC0003F58273FA7F7968184609F0B7F93B6B14
:102CCC001A1D7B8F1344FA7F7968184609F0AEF908
:102CDC00FB7F9AB27B8F13447B873B6B7A8F5A8036
:102CEC000123B54618464437BD46BDE8F08300BF06
:102CFC007CED00082C11002084ED000890ED0008FC
:102D0C009CED0008A8ED0008B4ED0008C4ED000827
:102D1C00D0ED0008DCED0008E0ED00085CED0008EB
:102D2C0080B586B000AFF8600B467A607B817B89FA
:102D3C008B4A1946F86802F0F9F978617B69002B27
:102D4C0018D0002000F08CFA0346002B01D002238F
:102D5C0001E17A897B68F9680020FFF769FE034678
:102D6C00002B01D10023F6E00121002000F008FB2C
:102D7C000123F0E07B897B4A1946F86802F0D6F90A
:102D8C0078617B69002B18D0012000F069FA0346AA
:102D9C00002B01D00223DEE07A897B68F9680120E0
:102DAC00FFF746FE0346002B01D10023D3E001219F
:102DBC00012000F0E5FA0123CDE07B896A4A19462F
:102DCC00F86802F0B3F978617B69002B18D0042005
:102DDC0000F046FA0346002B01D00223BBE07A89AF
:102DEC007B68F9680420FFF723FE0346002B01D112
:102DFC000023B0E00121042000F0C2FA0123AAE074
:102E0C007B895A4A1946F86802F090F978617B6917
:102E1C00002B13D0032000F023FA0346002B01D023
:102E2C00022398E07A897B68F9680320FFF700FE9B
:102E3C000121032000F0A4FA01238CE07B894C4A89
:102E4C001946F86802F072F978617B69002B18D08A
:102E5C00022000F005FA0346002B01D002237AE091
:102E6C007A897B68F9680220FFF7E2FD0346002BA4
:102E7C0001D100236FE00121022000F081FA01232F
:102E8C0069E07B893B4A1946F86802F04FF9786192
:102E9C007B69002B18D0052000F0E2F90346002BCB
:102EAC0001D0022357E07A897B68F9680520FFF787
:102EBC00BFFD0346002B01D100234CE0012105206E
:102ECC0000F05EFA012346E07B892B4A1946F8682C
:102EDC0002F02CF978617B69002B18D0072000F0E8
:102EEC00BFF90346002B01D0022334E07A897B68BA
:102EFC00F9680720FFF79CFD0346002B01D1002346
:102F0C0029E00121072000F03BFA012323E07B8913
:102F1C001A4A1946F86802F009F978617B69002BA6
:102F2C0018D0062000F09CF90346002B01D0022398
:102F3C0011E07A897B68F9680620FFF779FD034672
:102F4C00002B01D1002306E00121062000F018FA25
:102F5C00012300E0002318461837BD4680BD00BF92
:102F6C007CED000884ED000890ED00089CED000855
:102F7C00A8ED0008B4ED0008C4ED0008D0ED000881
:102F8C0080B582B002AF4FF47A7300930123012213
:102F9C0007490848FFF770FB0346012B04D0064B8A
:102FAC0000221A70002300E001231846BD4680BDA4
:102FBC00E4ED0008E8ED00083817002080B59EB05D
:102FCC0002AF0346FB71FA7907F10C030D49184661
:102FDC0009F0DEFB07F10C004FF47A730093012328
:102FEC0001220949FFF748FB0346012B04D0074B8C
:102FFC0000221A70002300E0012318467037BD46EA
:10300C0080BD00BF00EE0008E4ED0008381700207A
:10301C002DE9F04389B002AF6B461E46504B1B782E
:10302C00DBB2002B01D1002394E0FFF763FB4D4B87
:10303C001B78002B06D04C4B1B88DBB21846FFF7D5
:10304C00BDFF01E0FFF79CFF484B1B881946484821
:10305C00FFF78EFB03461A46434B1A80424B1B88E4
:10306C00002B04D13E4B00221A70002372E03F4B20
:10307C001B883A4619463E48FFF7E2FB0346002BF5
:10308C0004D1374B00221A70002363E0374B1988A8
:10309C000B46013B7B618BB20022984691464FF068
:1030AC0000024FF000034FEAC90343EA58734FEA9A
:1030BC00C8028BB200221C4615464FF000024FF09E
:1030CC000003EB0043EA5473E2000B460733DB08C2
:1030DC00DB00ADEB030D02AB00333B61234B1B88D4
:1030EC001A460021386908F0AFFF204B1B883A695B
:1030FC0019461F48FFF706FC0346FB81FB89002B92
:10310C0004D1174B00221A70002323E03A46FB89A6
:10311C0019463869FFF704FE03467B737B7B002B53
:10312C0004D10F4B00221A70002313E07B7B022B7F
:10313C0003D10C4B01221A700BE04FF47A730093FD
:10314C00012301220B490C48FFF796FA044B00228D
:10315C001A700123B54618461C37BD46BDE8F083EE
:10316C00381700203C1700203E1700203A1700208B
:10317C0034140020E4ED00080CEE000880B586B095
:10318C0002AF0346FB710023FB73FB79042B49D878
:10319C0001A252F823F000BFB93100081332000825
:1031AC00F5310008D7310008313200084FF4FA63CA
:1031BC0000930123012222492248FFF75DFA0346BE
:1031CC00012B31D10123FB732EE04FF4FA630093F2
:1031DC00012301221C491D48FFF74EFA0346012B1F
:1031EC0024D00123FB7321E04FF4FA6300930123F5
:1031FC00012217491748FFF73FFA0346012B17D155
:10320C000123FB7314E04FF4FA63009301230122B2
:10321C0011491248FFF730FA0346012B0AD001235B
:10322C00FB7307E000BF06E000BF04E000BF02E054
:10323C0000BF00E000BFFB7B18461037BD4680BDC9
:10324C0018EE000828EE000834EE000848EE0008DE
:10325C0054EE000860EE00086CEE000878EE0008F2
:10326C0080B485B000AF0346FB710023FB73FB7980
:10327C00072B7BD801A252F823F000BFA93200081B
:10328C00C332000811330008F7320008DD320008A1
:10329C002B3300085F33000845330008374B1B689D
:1032AC0093F86432C3F30003DBB2002B14BF012389
:1032BC000023FB735BE0314B1B6893F87433C3F34F
:1032CC000003DBB2002B14BF01230023FB734EE081
:1032DC002A4B1B6893F8A436C3F30003DBB2002B14
:1032EC0014BF01230023FB7341E0244B1B6893F8AC
:1032FC009435C3F30003DBB2002B14BF012300236E
:10330C00FB7334E01D4B1B6893F88434C3F3000348
:10331C00DBB2002B14BF01230023FB7327E0174BF8
:10332C001B6893F8B437C3F30003DBB2002B14BF54
:10333C0001230023FB731AE0104B1B6893F8D4395C
:10334C00C3F30003DBB2002B14BF01230023FB7378
:10335C000DE00A4B1B6893F8C438C3F30003DBB2CF
:10336C00002B14BF01230023FB7300E000BFFB7B89
:10337C0018461437BD4680BC704700BF2C11002086
:10338C0080B483B000AF03460A46FB711346BB7191
:10339C00FB79072B7AD801A252F823F0C933000825
:1033AC00E33300083134000817340008FD330008FB
:1033BC004B3400087F34000865340008364B1A681B
:1033CC00BB7903F00103D9B292F8643261F30003C4
:1033DC0082F864325BE0304B1A68BB7903F001036E
:1033EC00D9B292F8743361F3000382F874334EE06F
:1033FC00294B1A68BB7903F00103D9B292F8A436B1
:10340C0061F3000382F8A43641E0234B1A68BB79C0
:10341C0003F00103D9B292F8943561F3000382F8FA
:10342C00943534E01C4B1A68BB7903F00103D9B214
:10343C0092F8843461F3000382F8843427E0164B4D
:10344C001A68BB7903F00103D9B292F8B43761F36F
:10345C00000382F8B4371AE00F4B1A68BB7903F0FB
:10346C000103D9B292F8D43961F3000382F8D4394C
:10347C000DE0094B1A68BB7903F00103D9B292F83D
:10348C00C43861F3000382F8C43800E000BF00BF09
:10349C000C37BD4680BC70472C11002080B485B021
:1034AC0000AF0346FB710023FB73FB79072B7BD822
:1034BC0001A252F823F000BFE5340008FF340008E5
:1034CC004D350008333500081935000867350008FC
:1034DC009B35000881350008374B1B6893F8643224
:1034EC00C3F34003DBB2002B14BF01230023FB7397
:1034FC005BE0314B1B6893F87433C3F34003DBB2CE
:10350C00002B14BF01230023FB734EE02A4B1B68D6
:10351C0093F8A436C3F34003DBB2002B14BF012392
:10352C000023FB7341E0244B1B6893F89435C3F3E1
:10353C004003DBB2002B14BF01230023FB7334E0E8
:10354C001D4B1B6893F88434C3F34003DBB2002B90
:10355C0014BF01230023FB7327E0174B1B6893F860
:10356C00B437C3F34003DBB2002B14BF0123002399
:10357C00FB731AE0104B1B6893F8D439C3F3400368
:10358C00DBB2002B14BF01230023FB730DE00A4BAD
:10359C001B6893F8C438C3F34003DBB2002B14BF91
:1035AC0001230023FB7300E000BFFB7B184614379C
:1035BC00BD4680BC704700BF2C11002080B483B086
:1035CC0000AF03460A46FB711346BB71FB79072B10
:1035DC007AD801A252F823F0053600081F360008ED
:1035EC006D36000853360008393600088736000857
:1035FC00BB360008A1360008364B1A68BB7903F0BD
:10360C000103D9B292F8643261F3410382F8643257
:10361C005BE0304B1A68BB7903F00103D9B292F826
:10362C00743361F3410382F874334EE0294B1A680A
:10363C00BB7903F00103D9B292F8A43661F34103CC
:10364C0082F8A43641E0234B1A68BB7903F00103DE
:10365C00D9B292F8943561F3410382F8943534E091
:10366C001C4B1A68BB7903F00103D9B292F884346D
:10367C0061F3410382F8843427E0164B1A68BB7956
:10368C0003F00103D9B292F8B43761F3410382F825
:10369C00B4371AE00F4B1A68BB7903F00103D9B2A7
:1036AC0092F8D43961F3410382F8D4390DE0094B17
:1036BC001A68BB7903F00103D9B292F8C43861F3EC
:1036CC00410382F8C43800E000BF00BF0C37BD4690
:1036DC0080BC70472C11002080B582B002AF4FF433
:1036EC00FA630093012301220D490E48FEF7C4FF33
:1036FC000346012B01D000230EE04FF4FA63009334
:10370C000123012206490848FEF7B6FF0346012BA8
:10371C0001D0002300E001231846BD4680BD00BF48
:10372C00E4ED000880EE00088CEE000880B5A0B037
:10373C0002AFF8600B467A607B81FFF7CDFF034642
:10374C00002B01D1002334E007F114037A681B49E4
:10375C00184609F01DF807F114004FF4FA630093B2
:10376C00012301221649FEF787FF0346012B01D0E6
:10377C0000231EE07B895A1C7A811A46FB6813448D
:10378C001A221A700F4B18687A894FF6FF73F96872
:10379C0007F002FB4FF4FA610B48FEF7B3FE034649
:1037AC00012B03D0FEF7A6FF002302E0FEF7A2FFD9
:1037BC00012318467837BD4680BD00BF9CEE00083B
:1037CC00ACEE000824110020E4ED000880B483B0B6
:1037DC0000AF0346FB71044AFB79137000BF0C3732
:1037EC00BD4680BC704700BF0000002080B400AF15
:1037FC00024B1B781846BD4680BC70470000002069
:10380C0080B400AF024B1B781846BD4680BC704795
:10381C000100002080B483B000AF0346FB71044A62
:10382C00FB79137000BF0C37BD4680BC704700BFDE
:10383C000100002080B500AFFFF7E2FF0346012B2B
:10384C0002D0022B04D007E00220FFF7E3FF03E0D5
:10385C000120FFF7DFFF00BF00BF80BD80B400AFC9
:10386C00094B1B889BB2632B03D9074B00221A8090
:10387C0006E0054B1B889BB201339AB2024B1A80AF
:10388C0000BFBD4680BC70474017002080B400AF1D
:10389C00094B1B889BB2002B03D1074B64221A8067
:1038AC0006E0054B1B889BB2013B9AB2024B1A8077
:1038BC0000BFBD4680BC70474017002080B400AFED
:1038CC00034B1B889BB21846BD4680BC704700BF9B
:1038DC004017002080B483B000AF0346FB80044A3D
:1038EC00FB88138000BF0C37BD4680BC704700BFFF
:1038FC004017002080B483B000AF0346FB71044A2C
:10390C00FB79137000BF0C37BD4680BC704700BFFD
:10391C004217002080B483B000AF0346FB71044A09
:10392C00FB79137000BF0C37BD4680BC704700BFDD
:10393C000200002080B483B000AF0346FB71044A40
:10394C00FB79137000BF0C37BD4680BC704700BFBD
:10395C005317002080B400AF024B1B781846BD46AD
:10396C0080BC70475317002080B400AF024B1B780B
:10397C001846BD4680BC70470300002080B400AFE1
:10398C00034B1B78DBB21846BD4680BC704700BFAA
:10399C005217002080B483B000AF0346FB71044A79
:1039AC00FB79137000BF0C37BD4680BC704700BF5D
:1039BC005217002080B485B000AFF860B9607A600F
:1039CC00064AFB681360064ABB681360054A7B68AD
:1039DC00136000BF1437BD4680BC704748170020E9
:1039EC00441700204C17002080B400AF094B1B7803
:1039FC00002B05D0012B07D1064B00221A7004E0D6
:103A0C00044B01221A7000E000BF00BFBD4680BC11
:103A1C00704700BF5017002080B400AF024B1B78DA
:103A2C001846BD4680BC70475017002080B483B048
:103A3C0000AF78600B46FB707B681B78DBB2FA78C2
:103A4C009A4203D87B6800221A7006E07B681B78C8
:103A5C00DBB20133DAB27B681A7000BF0C37BD469B
:103A6C0080BC704780B483B000AF78600B46FB70AD
:103A7C007B681B78DBB2002B03D17B68FA781A7059
:103A8C0006E07B681B78DBB2013BDAB27B681A700C
:103A9C0000BF0C37BD4680BC7047000080B400AF3F
:103AAC00034B1B78DBB21846BD4680BC704700BF89
:103ABC005117002080B483B000AF0346FB71044A59
:103ACC00FB79137000BF0C37BD4680BC704700BF3C
:103ADC005117002080B500AF384B1B681B78092BA1
:103AEC0069D801A252F823F01D3B0008333B0008B3
:103AFC00433B0008533B0008633B0008733B000842
:103B0C00A33B0008B33B0008833B0008933B000831
:103B1C002A4B1B6803221A700020FFF7CBFF0120F1
:103B2C00FFF738FF48E0254B1B6803221A70012071
:103B3C00FFF730FF40E0214B1B6803221A70012075
:103B4C00FFF728FF38E01D4B1B6804221A70012078
:103B5C00FFF720FF30E0194B1B6800221A70012080
:103B6C00FFF718FF28E0154B1B6800221A70012084
:103B7C00FFF710FF20E0114B1B6800221A70012088
:103B8C00FFF708FF18E00D4B1B6800221A7001208C
:103B9C00FFF700FF10E0094B1B6800221A70012090
:103BAC00FFF7F8FE08E0054B1B6800221A70012095
:103BBC00FFF7F0FE00E000BF00BF80BD48170020FB
:103BCC0098B500AF494B1B681B78092B00F2888015
:103BDC0001A252F823F000BFED3C0008ED3C0008B8
:103BEC00ED3C0008ED3C00080D3C0008413C000891
:103BFC00A13C0008DD3C0008813C0008913C000819
:103C0C00FFF70AFF0346012B07D1384B1B6806222E
:103C1C001A700120FFF7BEFE64E0FFF7FDFE0346BD
:103C2C00002B5FD1314B1B6805221A700120FFF766
:103C3C00B1FE57E0FFF78EFE0346022B10D0022B8D
:103C4C0013DC002B02D0012B05D00EE0274B1B6898
:103C5C0008221A700AE0254B1B6809221A7005E02D
:103C6C000121062001F084FC00E000BF0120FFF7D9
:103C7C0091FE38E01D4B1B6805221A700120FFF7DE
:103C8C0089FE30E0194B1B6805221A700120FFF7E2
:103C9C0081FE28E0FFF768FE0346012B07D1144B89
:103CAC001C680120FEF706FB0346A37106E0104BCF
:103CBC001C680220FEF7FEFA0346A371FCF78CFC8D
:103CCC000A4B1B6807221A700120FFF763FE0AE0FB
:103CDC00064B1B6806221A700120FFF75BFE02E000
:103CEC0000BF00E000BF00BF98BD00BF4817002018
:103CFC004C17002080B500AF344B1B681B78092B88
:103D0C0061D801A252F823F0D33D0008D33D00083E
:103D1C00D33D00083D3D0008553D0008613D0008BD
:103D2C00B33D0008D33D00089B3D0008A73D0008AB
:103D3C00274B1B689B68DBB219462648FFF776FEBB
:103D4C000120FFF727FE3FE0FFF74EFE0120FFF7B3
:103D5C0021FE39E0FFF7FEFD0346022B0ED0022BAD
:103D6C0010DC002B02D0012B04D00BE00120FFF75C
:103D7C00E1FD08E00220FFF7DDFD04E00020FFF785
:103D8C00D9FD00E000BF0120FFF704FE1CE0FFF7A7
:103D9C007DFD0120FFF7FEFD16E0FFF74BFD012036
:103DAC00FFF7F8FD10E00C4B1B78002B05D0012B16
:103DBC0007D1094B00221A7004E0074B01221A703C
:103DCC0000E000BF00E000BF00BF80BD481700202E
:103DDC0044170020511700200300002080B500AFCD
:103DEC00324B1B681B78092B5DD801A252F823F0CB
:103DFC00B33E0008B33E0008B33E0008253E000861
:103E0C003D3E0008493E00088D3E0008B33E0008C8
:103E1C00813E0008873E0008254B1B689B68DBB27F
:103E2C0019462448FFF71EFE0120FFF7B3FD3BE0C7
:103E3C00FFF7DAFD0120FFF7ADFD35E0FFF78AFD56
:103E4C000346022B0DD0022B0FDC002B05D0012BCF
:103E5C000BD10220FFF76EFD08E00120FFF76AFD91
:103E6C0004E00020FFF766FD00E000BF0120FFF733
:103E7C0091FD19E0FFF7F2FC16E0FFF7DBFC13E015
:103E8C000D4B1B78002B05D0012B07D10A4B0022C0
:103E9C001A7004E0084B01221A7000E000BF0120E8
:103EAC00FFF778FD00E000BF00BF80BD4817002081
:103EBC0044170020511700200300002080B500AFEC
:103ECC000120FFF767FD02F045FE0120FFF77EFCA5
:103EDC000121052001F04CFB00BF80BD80B500AF77
:103EEC000120FFF757FD02F035FE0020FFF76EFCB6
:103EFC000121052001F03CFB00BF80BD80B582B0E4
:103F0C0000AF7860044A7B68136000F0D5F900BFFD
:103F1C000837BD4680BD00BF5417002080B586B061
:103F2C0000AFC7E902017A6007F10803184607F0F1
:103F3C004DFF78617B695B69DBB2643BDAB27B680D
:103F4C001A707B691B69DBB20133DAB27B685A7079
:103F5C007B69DB68DAB27B689A707B699B69DBB240
:103F6C000133DAB27B68DA707B699B68DBB20733AA
:103F7C00DAB27B681A717B695B68DAB27B685A715A
:103F8C007B691B68DAB27B689A7100BF1837BD4633
:103F9C0080BD80B58EB000AF78607B681B786433D1
:103FAC003B627B685B78013BFB617B689B78BB6108
:103FBC007B681B79073B7B617B685B793B617B682A
:103FCC009B79FB604FF0FF33FB6207F10C03184643
:103FDC0008F01AF9C7E90C01D7E90C231046194669
:103FEC003837BD4680BD000080B586B002AF786022
:103FFC000023FB730023BB6007F10C0300210A466E
:10400C001A800A469A70354B186807F10F024FF068
:10401C00FF3300930123D02105F04CF80346002B0D
:10402C0001D0002355E02D4B186807F108024FF022
:10403C00FF3300930723D02105F03AF90346002BF8
:10404C0001D0002345E03B7A03F07F03DBB2184636
:10405C0000F0A8F903461A467B689A717B7A03F044
:10406C007F03DBB2184600F09DF903461A467B68C5
:10407C005A71BB7A03F03F03DBB2184600F092F999
:10408C0003461A467B681A71FB7A03F00703DAB20F
:10409C007B68DA703B7B03F03F03DBB2184600F021
:1040AC0081F903461A467B689A707B7B03F01F03E9
:1040BC00DBB2184600F076F903461A467B685A7054
:1040CC00BB7B184600F06EF903461A467B681A70E3
:1040DC00012318461037BD4680BD00BF5417002081
:1040EC0080B588B002AF78600023FB75FB7D3B7315
:1040FC007B689B79184600F06DF903467B737B68EF
:10410C005B79184600F066F90346BB737B681B7934
:10411C00184600F05FF90346FB737B68DB783B7451
:10412C007B689B78184600F055F903467B747B68D6
:10413C005B78184600F04EF90346BB747B681B781D
:10414C00184600F047F90346FB740A4B186807F150
:10415C000C024FF0FF3300930823D02104F0AAFF88
:10416C000346002B01D0002300E00123184618372A
:10417C00BD4680BD5417002090B589B002AF0446EF
:10418C00084611461A462346FB710346BB710B4683
:10419C007B7113463B7197F82830184600F01AF9DA
:1041AC000346FB753B79184600F014F90346BB75C2
:1041BC007B79184600F00EF903467B75BB791846DF
:1041CC0000F008F903463B75FB79042B38D801A2A3
:1041DC0052F823F04D420008F5410008FF41000859
:1041EC00114200082B4200083B7D63F07F033B75B6
:1041FC0027E03B7D63F07F033B757B7D63F07F03A2
:10420C007B751EE03B7D63F07F033B757B7D63F02C
:10421C007F037B75BB7D63F07F03BB7511E03B7D3A
:10422C0063F07F033B757B7D63F07F037B75BB7D08
:10423C0063F07F03BB75FB7D63F07F03FB7500E0D0
:10424C0000BF0723FB74FB7C3B73FB7D7B73BB7D47
:10425C00BB737B7DFB733B7D3B74164B186807F17E
:10426C000C024FF0FF3300930523D02104F022FF02
:10427C000346002B01D0002317E00023FB7207F14B
:10428C000B0319460E2000F03DF8FB7A43F00103B6
:10429C00DBB2FB72FB7A43F00403DBB2FB72FB7AFA
:1042AC0019460E2000F05AF8012318461C37BD465B
:1042BC0090BD00BF5417002080B582B000AFFB1D2D
:1042CC0019460E2000F01EF8FB7923F00103DBB237
:1042DC00FB71FB7919460E2000F040F8BB1D194606
:1042EC000F2000F00FF8BB7923F00103DBB2BB7198
:1042FC00BB7919460F2000F031F801231846083716
:10430C00BD4680BD80B584B002AF03463960FB71F9
:10431C00114B1868FA1D4FF0FF3300930123D02185
:10432C0004F0C8FE0346002B01D000230FE00A4B1B
:10433C0018684FF0FF33009301233A68D02104F042
:10434C00B7FF0346002B01D0002300E001231846E1
:10435C000837BD4680BD00BF5417002080B586B01D
:10436C0002AF03460A46FB711346BB71FB793B73E4
:10437C00BB797B730A4B186807F10C024FF0FF33C3
:10438C0000930223D02104F095FE0346002B01D0AC
:10439C00002300E0012318461037BD4680BD00BF46
:1043AC005417002080B483B000AF0346FB71FB7937
:1043BC001B09DBB21A46920013445B00DAB2FB799C
:1043CC0003F00F03DBB21344DBB218460C37BD46C7
:1043DC0080BC704780B483B000AF0346FB71FB799F
:1043EC000D4AA2FB0323DB08DBB21B0158B2FA799E
:1043FC00094BA3FB0213D9080B469B000B445B0033
:10440C00D31ADBB25BB203435BB2DBB218460C3798
:10441C00BD4680BC704700BFCDCCCCCC80B584B041
:10442C0000AF0346FB710B46BB7113467B7107F162
:10443C0008031846FFF7D8FD034683F00103DBB2EF
:10444C00002B01D0002341E03B7BFA799A4204D344
:10445C00FB793A7B9B1A122B01DD002336E03B7B68
:10446C00FA799A4205D17B7BBA799A4201D2002320
:10447C002CE03B7BFA799A4209D17B7BBA799A4240
:10448C0005D1BB7B7A799A4201D200231EE0FB79DD
:10449C003A7B9B1A9BB21A461201D31A1A46120186
:1044AC00D31A1B019AB2BB79797B5B1A9BB2194662
:1044BC000901CB1A9B009BB213449AB27B7999B237
:1044CC00BB7B9BB2CB1A9BB213449BB218461037E2
:1044DC00BD4680BD80B500AF094B1B6880220949E1
:1044EC00184606F0DCFC084B1B681B681A68064B68
:1044FC001B681B6822F004021A6000BF80BD00BF5D
:10450C0058170020641700205C17002080B582B07B
:10451C0000AF0346FB80FB881A460E490E4807F095
:10452C0085FDFFF7D7FFFB880C4A19460A4800F0B7
:10453C00FDFD0346002B02D0094B01221A70FB88AB
:10454C00DBB21946044800F033F800BF0837BD460B
:10455C0080BD00BF64170020E4170020C8EE0008DF
:10456C00E418002080B485B000AF0346FB710F4BFC
:10457C001B68DB681B685B6FFB6009E0FB681B78E2
:10458C00FA799A4201D101230AE0FB685B6FFB6068
:10459C00064B1B68DB685B68FA689A42EED1002315
:1045AC0018461437BD4680BC704700BF601700200A
:1045BC002DE9F043DBB01AAF78600B46FB706B460D
:1045CC001E467B681B78012B40F065817B680133AC
:1045DC001B78013B87F8F33097F8F330591C4B1ECE
:1045EC00C7F8EC300A460023904699464FF000027B
:1045FC004FF000034FEAC90343EA58734FEAC8026D
:10460C000A46002314461D464FF000024FF00003EB
:10461C00EB0043EA5473E2000B460733DB08DB0084
:10462C00ADEB030D1AAB0033C7F8E83097F8F33055
:10463C0001331A460021D7F8E80007F005FD7B6826
:10464C00033397F8F3201946D7F8E80007F0EEFC8F
:10465C00D7F8E80007F08CFB034687F8E73097F8AB
:10466C00E730184601F0BEF8034683F00103DBB2D5
:10467C00002B40F01281002387F8F930002387F8D3
:10468C00FA30002387F8FB300023A7F8FC30002316
:10469C0087F8FF3097F8F33003331A467B681344DE
:1046AC001B7887F8E63097F8E630082B09D0082BF2
:1046BC000FDC042B09D0072B0BD1022387F8FA301F
:1046CC0008E0012387F8FA3004E0012387F8FF3073
:1046DC0000E000BF97F8FA30002B04D197F8FF30B8
:1046EC00002B00F0DC8097F8FF30002B0BD097F8F4
:1046FC00F33005337A6813441B7887F8FB300123B9
:10470C0087F8F93028E097F8F33004337A681344CB
:10471C001B78022B02D0642B0FD01DE097F8F330DE
:10472C0005337A681344184600F0A8FD0346A7F831
:10473C00FC30022387F8F9300EE097F8F33005339C
:10474C007A68D11807F180036422184607F06EFCD2
:10475C00032387F8F93000BF97F8E7301846FFF7C6
:10476C0001FF034683F00103DBB2002B44D007F1B9
:10477C000C0372220021184607F066FC01233B74DF
:10478C0001233B7597F8E7303B7397F8F930032B0F
:10479C0011D0032B1EDC012B02D0022B04D019E00C
:1047AC0097F8FB30FB7516E097F8FA303B74B7F8C6
:1047BC00FC307B820FE097F8FA303B7407F18001F4
:1047CC0007F10C030C336422184607F02FFC01236D
:1047DC007B7500E000BF354B1B68DC68684607F151
:1047EC0018036622194607F021FC07F10C030ECBC7
:1047FC00204601F0DDFA4CE02C4B1B68DB681B6893
:10480C005B6FC7F8F4303CE0D7F8F4301B7897F8BE
:10481C00E7209A4230D197F8F930032B17D0032BAD
:10482C0028DC012B02D0022B06D023E0D7F8F43081
:10483C0097F8FB20DA721EE0D7F8F43097F8FA20DC
:10484C001A71D7F8F430B7F8FC20DA8013E0D7F8F7
:10485C00F43097F8FA201A71D7F8F4300C3307F1CA
:10486C0080016422184607F0E1FBD7F8F4300122EE
:10487C005A7200E000BF13E0D7F8F4305B6FC7F852
:10488C00F4300A4B1B68DB685B68D7F8F4209A425B
:10489C00BAD1B54605E000BF02E000BF00E000BFA2
:1048AC00B54607F58277BD46BDE8F083601700205A
:1048BC0080B483B000AF7860034A7B68136000BF9C
:1048CC000C37BD4680BC7047E818002080B400AFA0
:1048DC00034B1B689B7E1846BD4680BC704700BFCF
:1048EC00E8180020B0B592B002AFB9607B60034607
:1048FC00FB731346BB810023FB87BB89FB86FB7BC9
:10490C00012B09D107F11403364A1C4615460FCD6D
:10491C000FC42B6823705BE0FB7B002B0BD107F1E2
:10492C001403314A1C4613460FCB07C423800234B0
:10493C001B0C23704CE0002350E007F11402FB8E9B
:10494C001946B86800F0F2FBB863BB6B002B01D1C1
:10495C00002343E0FB8E1A46B968B86B00F065FC87
:10496C000346FB86FA8E07F1280300931346BA6BB5
:10497C001E491F4800F006FC07F12803184607F0F3
:10498C00F7F903467B8602E0BB6B0133BB63BB6B61
:10499C001B780A2BF8D1BB6B0133BB630023BB869E
:1049AC000DE0BB8EBA6B1A44FB8F591CF987194664
:1049BC007B680B4412781A70BB8E0133BB86BA8E9F
:1049CC007B8E9A42EDD3BB6B0133BB63BB6BBB607D
:1049DC00FA8FB7F850309A42AFD3012318464037BC
:1049EC00BD46B0BDE4EE0008F8EE000808EF000884
:1049FC000CEF000880B58CB002AF78600B467B8062
:104A0C007B88234A1946786800F090FB78627B8893
:104A1C001A467968786A00F008FC03467B847A8C25
:104A2C0007F11803009313467A6A1A49194800F0E3
:104A3C00A9FB07F11803184607F09AF90246164B22
:104A4C001B6892B2A3F862227B8C124A1946786AD0
:104A5C0000F06CFB78627B6A01337B627A8C07F125
:104A6C000C03009313467A6A0C490A4800F08AFB3F
:104A7C0007F10C03184607F07BF90246064B1B683E
:104A8C0092B2A3F83822012318462837BD4680BDC0
:104A9C0010EF00080CEF0008E818002008EF0008E1
:104AAC0080B584B002AF78600B467B80094B1B68E5
:104ABC0003F23A21074B1B68B3F862327A880093F1
:104ACC000B4679680020FFF70DFF034618460837A0
:104ADC00BD4680BDE818002080B584B002AF786078
:104AEC000B467B80094B1B6803F13801074B1B6895
:104AFC00B3F838327A8800930B4679680120FFF7B7
:104B0C00F1FE034618460837BD4680BDE818002064
:104B1C0080B582B000AF78600B467B807B881946ED
:104B2C007868FFF767FF0346002B01D100232BE0C9
:104B3C00174B1B6838334FF400720021184607F0EE
:104B4C0083FA134B1B6803F23A23282200211846E0
:104B5C0007F07AFA7B8819467868FFF7A1FF0346BD
:104B6C00002B01D100230FE07B8819467868FFF7F2
:104B7C00B3FF0346002B01D1002305E0044B1B6857
:104B8C00012283F82C20012318460837BD4680BD2E
:104B9C00E818002080B582B002AF4FF4FA6300939E
:104BAC00012301220A490B48FDF766FD0346012B40
:104BBC0005D1094B1B6801229A76012304E0064BB0
:104BCC001B6800229A7600231846BD4680BD00BFA4
:104BDC0020EF000830EF0008E818002080B584B002
:104BEC0002AF4FF4FA630093012301220F491048DE
:104BFC00FDF742FD0346FB71FB79012B01D101232B
:104C0C0010E04FF4FA63009301230122094908488C
:104C1C00FDF732FD0346FB71FB79012B01D101231A
:104C2C0000E0002318460837BD4680BD40EF000861
:104C3C0050EF000860EF000880B584B002AF7860D8
:104C4C007A680B490B4807F0A3FD4FF47A73009375
:104C5C000123012208490748FDF70EFD0346012BED
:104C6C0001D1012300E0002318460837BD4680BD62
:104C7C0068EF0008EC1800207CEF000880B582B0CB
:104C8C0002AF4FF4FA63009301230122064907484F
:104C9C00FDF7F2FC0346002B01D0012300E00023BA
:104CAC001846BD4680BD00BF7CEF000880EF0008B1
:104CBC0080B584B002AF3D4B1B681B691846FBF7EF
:104CCC003FFA0346FB71FB791A463949394807F01C
:104CDC005FFD4FF4FA630093012301223E21354816
:104CEC00FDF7CAFC0346012B01D000235AE02F4BE1
:104CFC001B681B691A4630492E4807F049FD4FF4D2
:104D0C007A730093012301222C492A48FDF7B4FC45
:104D1C000346012B01D0002344E0244B1B685B6944
:104D2C001846FBF70DFA0346BB71BB791A462449AA
:104D3C00204807F02DFD4FF4FA6300930123012264
:104D4C003E211C48FDF798FC0346012B01D00023A3
:104D5C0028E0164B1B685B691A461749154807F083
:104D6C0017FD4FF4FA6300930123012213491148F4
:104D7C00FDF782FC0346012B01D0002312E0114900
:104D8C000C4807F005FD4FF47A73009301230122C0
:104D9C000A490848FDF770FC0346002B01D100239B
:104DAC0000E0012318460837BD4680BDE8180020F6
:104DBC0090EF0008EC180020A8EF00087CEF00082A
:104DCC00ACEF0008C4EF000880B582B002AF114B05
:104DDC001B68DA680F4B1B681B8B19460D4B1B6845
:104DEC001B8D00930B460C490C4807F0D1FC4FF47B
:104DFC00FA6300930123012209490848FDF73CFCA2
:104E0C000346012B01D1012300E000231846BD46C7
:104E1C0080BD00BFE8180020E0EF0008EC1800206F
:104E2C0000F0000880B582B002AF0020FEF7A6F9B2
:104E3C000346002B1DD102F04FFE02461B4B1B6894
:104E4C00D31A44F62062934211D902F045FE034670
:104E5C00164A13604FF4FA6300930123012214499C
:104E6C001448FDF709FC4FF47A7002F03FFE012361
:104E7C0018E00120FEF782F90346002B01D1022332
:104E8C0010E00220FEF77AF90346002B01D1032330
:104E9C0008E00320FEF772F90346002B01D104232E
:104EAC0000E000231846BD4680BD00BFEC1A002070
:104EBC007CEF000814F0000880B500AFFFF7B2FFDC
:104ECC000346002B01D0002331E0FFF787FE034699
:104EDC00002B01D100232AE0164B1B685B6A184695
:104EEC00FFF7AAFE0346002B0BD1FFF753FE034638
:104EFC00002B02D000F020F801E0FFF7BFFE0023EA
:104F0C0015E0FFF7D5FE0346002B01D100230EE080
:104F1C00FFF75AFF0346002B04D1C82002F0E6FD30
:104F2C00002304E0034B1B6801229A7601231846E8
:104F3C0080BD00BFE818002080B582B002AF4FF4EE
:104F4C00FA6300930123012212491348FDF794FBE5
:104F5C000346012B01D0002319E0FFF78FFE034617
:104F6C00002B01D1002312E04FF4FA6300930123CC
:104F7C0001220A490A48FDF77FFB0346012B01D0A9
:104F8C00002304E0074B1B6800229A760123184685
:104F9C00BD4680BD20EF000820F0000834F000086A
:104FAC0044F00008E818002080B588B002AFF86023
:104FBC00B9601346FB800023FB75F868FBF7C0F85B
:104FCC000346BB75BB7D1A462D492E4807F0E0FB06
:104FDC004FF4FA630093012301223E212948FDF787
:104FEC004BFB0346012B01D0002345E04FF4FA6341
:104FFC000093012301222449F868FDF73DFB034689
:10500C00012B01D0002337E0FB881A461F491D48AD
:10501C0007F0BEFB4FF4FA630093012301223E21FB
:10502C001848FDF729FB0346012B01D0002323E090
:10503C00FA884FF6FF73B968154805F0ADFE4FF4CA
:10504C00FA611148FDF75EFA0346FB75FDF752FB5A
:10505C00FB7D012B01D000230EE04FF4FA6300938B
:10506C00012301220B490C48FDF706FB0346012BDB
:10507C0001D0002300E0012318461837BD4680BD3F
:10508C0054F00008EC1800207CEF000868F00008D1
:10509C004C2F002080F0000890F0000880B586B0FE
:1050AC0002AF78607868FBF74BF80346FB73FB7B29
:1050BC001A461949194807F06BFB4FF4FA63009331
:1050CC00012301223E211548FDF7D6FA0346012B98
:1050DC0001D000231CE04FF4FA630093012301225A
:1050EC000F497868FDF7C8FA0346012B01D000235D
:1050FC000EE04FF4FA6300930123012209490A4898
:10510C00FDF7BAFA0346012B01D0002300E001237E
:10511C0018461037BD4680BDA4F00008EC180020DE
:10512C007CEF0008BCF00008CCF0000880B586B01D
:10513C0000AFF8600B467A607B817868FBF700F86B
:10514C0003467B750023FB8211E0FB8AFA6813444B
:10515C007A7D7968184606F059FF0346002B03D177
:10516C00FB8AFA68134409E0FB8A0133FB827A89D3
:10517C007B7DD21AFB8A9A42E7DA0023184618374D
:10518C00BD4680BD80B588B000AFF860B9607A606C
:10519C007B80F868FAF7D4FF0346BB767B88FA6805
:1051AC0019467868FFF7C2FFF861FB69002B01D143
:1051BC00002336E0BB7EFA691344FB617B881A46F8
:1051CC007968F86900F031F803467B767B7E9BB2F8
:1051DC00BA681946F869FFF7A9FF78617B69002B5B
:1051EC0003D0FA697B699A4201D3002319E00023AA
:1051FC00FB760BE0FB7E5A1CFA761A46BB6A13440C
:10520C00FA6912781A70FB690133FB61FA697B69E0
:10521C009A42EFD1FB7EBA6A134400221A70FB7ECD
:10522C009BB218462037BD4680BD80B485B000AF18
:10523C00F860B9601346FB80FA68BB68D31A9BB25E
:10524C00FA88D31A9BB218461437BD4680BC7047F7
:10525C0080B483B000AF78600B467B807B881B0AE0
:10526C009BB2DAB27B681A707B6801337A88D2B24F
:10527C001A7000BF0C37BD4680BC704780B485B037
:10528C0000AF78600023FB817B681B781B021AB28D
:10529C007B6801331B781BB213431BB2FB81FB8968
:1052AC0018461437BD4680BC704780B485B000AF3B
:1052BC00786039607B68FB600023FB720EE0FB7A40
:1052CC00C3F103031A463B681344FA68D2B21A704E
:1052DC00FB681B0AFB60FB7A0133FB72FB7A032B26
:1052EC00EDD900BF00BF1437BD4680BC704780B4F9
:1052FC0085B000AF78600023FB607B681B781A06D2
:10530C007B6801331B781B041A437B6802331B78C0
:10531C001B0213437A68033212781343FB60FB6859
:10532C0018461437BD4680BC7047000080B483B06B
:10533C0000AF7860034A7B68136000BF0C37BD4632
:10534C0080BC7047F01A002080B485B000AF0346D3
:10535C00FB710023FB73FB79112B00F2FF8001A280
:10536C0052F823F0B9530008D1530008195400081F
:10537C0031540008E9530008515500080154000845
:10538C0049540008615400089154000879540008ED
:10539C00A9540008C1540008D9540008F15400085D
:1053AC000955000821550008395500086F4B1B683A
:1053BC001B7C03F00103DBB2002B14BF0123002381
:1053CC00FB73CCE0694B1B681B7C03F00203DBB264
:1053DC00002B14BF01230023FB73C0E0634B1B683D
:1053EC001B7C03F01003DBB2002B14BF0123002342
:1053FC00FB73B4E05D4B1B681B7C03F02003DBB23A
:10540C00002B14BF01230023FB73A8E0574B1B6830
:10541C001B7C03F00403DBB2002B14BF012300231D
:10542C00FB739CE0514B1B681B7C03F00803DBB245
:10543C00002B14BF01230023FB7390E04B4B1B6824
:10544C001B7C03F04003DBB2002B14BF01230023B1
:10545C00FB7384E0454B1B685B7C03F00103DBB200
:10546C00002B14BF01230023FB7378E03F4B1B6818
:10547C005B7C03F00203DBB2002B14BF012300237F
:10548C00FB736CE0394B1B681B7C23F07F03DBB296
:10549C00002B14BF01230023FB7360E0334B1B680C
:1054AC005B7C03F00403DBB2002B14BF012300234D
:1054BC00FB7354E02D4B1B685B7C03F00803DBB2E1
:1054CC00002B14BF01230023FB7348E0274B1B6800
:1054DC005B7C03F01003DBB2002B14BF0123002311
:1054EC00FB733CE0214B1B685B7C03F02003DBB2BD
:1054FC00002B14BF01230023FB7330E01B4B1B68F4
:10550C005B7C03F04003DBB2002B14BF01230023B0
:10551C00FB7324E0154B1B685B7C23F07F03DBB231
:10552C00002B14BF01230023FB7318E00F4B1B68E7
:10553C009B7C03F00103DBB2002B14BF012300237F
:10554C00FB730CE0094B1B689B7C03F00203DBB282
:10555C00002B14BF01230023FB7300E000BFFB7B77
:10556C0018461437BD4680BC704700BFF01A0020A7
:10557C0080B483B000AF03460A46FB711346BB717F
:10558C00FB79112B00F2ED8001A252F823F000BF41
:10559C00E5550008FB5500083D5600085356000819
:1055AC00115600085B57000827560008695600087A
:1055BC007F560008AB56000895560008C1560008E7
:1055CC00D7560008ED560008035700081957000875
:1055DC002F57000845570008654B1A68BB7903F034
:1055EC000103D9B2137C61F300031374BAE0604B6E
:1055FC001A68BB7903F00103D9B2137C61F3410340
:10560C001374AFE05A4B1A68BB7903F00103D9B29B
:10561C00137C61F304131374A4E0554B1A68BB7923
:10562C0003F00103D9B2137C61F34513137499E0B1
:10563C004F4B1A68BB7903F00103D9B2137C61F3A9
:10564C00820313748EE04A4B1A68BB7903F0010392
:10565C00D9B2137C61F3C303137483E0444B1A680F
:10566C00BB7903F00103D9B2137C61F38613137475
:10567C0078E03F4B1A68BB7903F00103D9B2537C35
:10568C0061F3000353746DE0394B1A68BB7903F076
:10569C000103D9B2537C61F34103537462E0344B80
:1056AC001A68BB7903F00103D9B2137C61F3C713F9
:1056BC00137457E02E4B1A68BB7903F00103D9B26F
:1056CC00537C61F3820353744CE0294B1A68BB7909
:1056DC0003F00103D9B2537C61F3C303537441E06B
:1056EC00234B1A68BB7903F00103D9B2537C61F3E5
:1056FC000413537436E01E4B1A68BB7903F0010394
:10570C00D9B2537C61F3451353742BE0184B1A68D0
:10571C00BB7903F00103D9B2537C61F38613537444
:10572C0020E0134B1A68BB7903F00103D9B2537C08
:10573C0061F3C713537415E00D4B1A68BB7903F072
:10574C000103D9B2937C61F3000393740AE0084B14
:10575C001A68BB7903F00103D9B2937C61F341035E
:10576C00937400BF00BF0C37BD4680BC704700BFB0
:10577C00F01A002080B584B000AF03460A46FB80C7
:10578C0013467B710023FB737B79012B09D0022B11
:10579C000FD1FB88DBB2184600F024F80346FB73EC
:1057AC0008E0FB88DBB2184600F009F80346FB73EF
:1057BC0000E000BFFB7B18461037BD4680BD80B4AF
:1057CC0083B000AF0346FB71FB79002B04D0FB794F
:1057DC00502B01D8012300E0002318460C37BD469E
:1057EC0080BC704780B483B000AF0346FB71FB797B
:1057FC00502B04D9FB79FF2B01D0012300E00023AF
:10580C0018460C37BD4680BC7047000080B584B08C
:10581C0000AF3B1D00221A605A609A60184B194A5F
:10582C001A60174B00229A60154B01221A73144B05
:10583C0000221A75124B4FF46022DA61104B0022D1
:10584C005A600F4B01221A610D4802F073F903469E
:10585C00002B01D000F098FD06237B600123BB6078
:10586C000723FB603B1D1946054802F0C5FB0346A8
:10587C00002B01D000F088FD00BF1037BD4680BD65
:10588C00F41A00200024014080B588B000AF786085
:10589C0007F1100300221A605A609A60DA607B6884
:1058AC001B68184A934229D1174B9B69164A43F43B
:1058BC0000739361144B9B6903F40073FB60FB68EA
:1058CC00114B9B69104A43F0040393610E4B9B6987
:1058DC0003F00403BB60BB6840233B6103237B6183
:1058EC0007F110031946094803F0D2F800220021F1
:1058FC00122002F0F4FD122002F00DFE00BF203742
:10590C00BD4680BD0024014000100240000801404B
:10591C0080B485B000AF786039600023BB60BB6891
:10592C00DB43BB600023FB6011E0FB687A68134427
:10593C001B781A46BB685340DBB20A4A52F8232044
:10594C00BB681B0A5340BB60FB680133FB60FA6801
:10595C003B689A42E9DBBB68DB4318461437BD460B
:10596C0080BC70470400002080B582B000AF144B9F
:10597C005B69134A43F001035361114B5B6903F0FC
:10598C0001037B607B68002200210D2002F0A7FD43
:10599C000D2002F0C0FD002200210F2002F09FFD1F
:1059AC000F2002F0B8FD00220021102002F097FD1C
:1059BC00102002F0B0FD00BF0837BD4680BD00BF0F
:1059CC000010024080B487B000AF78600023FB75F4
:1059DC000BE0FB7D7A681A44FB7D127818333B444C
:1059EC0003F80C2CFB7D0133FB75FB7D032BF0D9ED
:1059FC00FB683B613B6918461C37BD4680BC704751
:105A0C0080B485B000AFF860B9601346FB80FB68CA
:105A1C001A68BB681A60FB680433FB60BB6804330C
:105A2C00BB60FB885A1EFA80002B00D0EFE700BF4A
:105A3C0000BF1437BD4680BC704780B584B000AF42
:105A4C00786007F10803012219467868FFF7D8FF40
:105A5C0007F108031846FFF7B5FFF860FB68184616
:105A6C001037BD4680BD000080B588B000AF07F18F
:105A7C00100300221A605A609A60DA605C4B9B69D2
:105A8C005B4A43F010039361594B9B6903F010037D
:105A9C00FB60FB68564B9B69554A43F020039361AE
:105AAC00534B9B6903F02003BB60BB68504B9B6955
:105ABC004F4A43F0040393614D4B9B6903F004037D
:105ACC007B607B684A4B9B69494A43F008039361AE
