:020000040800F2
:1000000000500020FD670008595300085F530008A6
:10001000655300086B53000871530008000000008E
:1000200000000000000000000000000077530008FE
:1000300083530008000000008F5300089B53000802
:1000400045680008456800084568000845680008DC
:100050004568000845680008A7530008456800087F
:1000600045680008456800084568000845680008BC
:1000700045680008B553000845680008C9530008E2
:10008000DD53000845680008F15300084568000882
:1000900045680008456800084568000805540008E0
:1000A000456800084568000845680008456800087C
:1000B000456800084568000845680008456800086C
:1000C000456800084568000845680008456800085C
:1000D0004568000825540008395400084D540008AC
:1000E00061540008456800084568000800000000E9
:1000F0000000000000000000000000000000000000
:0C01000000000000000000005FF808F1A3
:10010C0010B5054C237833B9044B13B10448AFF345
:10011C0000800123237010BDB005002000000000FA
:10012C00DCD7000808B5034B1BB103490348AFF3F8
:10013C00008008BD00000000B4050020DCD70008DA
:10014C00034613F8012B002AFBD1181A013870470B
:10015C0010F8012B11F8013B012A28BF9A42F7D065
:10016C00D01A704742000ED2B2F1FE4F0BD34FF0B3
:10017C009E03B3EB126209D44FEA002343F0004311
:10018C0023FA02F070474FF00000704712F1610F34
:10019C0001D1420202D14FF0FF3070474FF0000006
:1001AC00704700BF7BB972B90029BEBF00204FF069
:1001BC00004106E008BF00281CBF6FF000414FF063
:1001CC00FF3000F0A9B9ADF1080C6DE904CE00299F
:1001DC0009DB002B1ADB00F035F8DDF804E0DDE973
:1001EC00022304B07047404261EB4101002B1BDB42
:1001FC0000F028F8DDF804E0DDE9022304B0404209
:10020C0061EB4101524263EB43037047524263EB93
:10021C00430300F017F8DDF804E0DDE9022304B035
:10022C00404261EB41017047524263EB430300F0E3
:10023C0009F8DDF804E0DDE9022304B0524263EB77
:10024C00430370472DE9F047089E0D460446884647
:10025C00002B4DD18A42944668D9B2FA82F252B13F
:10026C0001FA02F3C2F1200120FA01F10CFA02FCAE
:10027C0041EA030894404FEA1C41B8FBF1F71FFA1E
:10028C008CFE01FB178807FB0EF0230C43EA084396
:10029C0098420AD91CEB030307F1FF3580F01E814D
:1002AC00984240F21B81023F63441B1AB3FBF1F0EE
:1002BC0001FB103300FB0EFEA4B244EA0344A64536
:1002CC000AD91CEB040400F1FF3380F00981A64528
:1002DC0040F20681644402380021A4EB0E0440EA8B
:1002EC0007401EB10023D440C6E90043BDE8F087A7
:1002FC008B4208D9002E00F0EE800021C6E90005E3
:10030C000846BDE8F087B3FA83F100294AD1AB4225
:10031C0002D3824200F2FC80841A65EB03030120B5
:10032C009846002EE2D0C6E90048DFE702B9FFDEAE
:10033C00B2FA82F2002A40F09180A1EB0C0001216C
:10034C004FEA1C471FFA8CFEB0FBF7F307FB1300B8
:10035C00250C45EA00450EFB03F0A84208D91CEB1E
:10036C00050503F1FF3802D2A84200F2CE804346C5
:10037C002D1AB5FBF7F007FB10550EFB00FEA4B2CF
:10038C0044EA0544A64508D91CEB040400F1FF35EA
:10039C0002D2A64500F2B6802846A4EB0E0440EA31
:1003AC0003409EE7C1F120078B4022FA07FC4CEA80
:1003BC00030C25FA07FA4FEA1C49BAFBF9F820FAA4
:1003CC0007F309FB18AA8D401FFA8CFE1D4300FA97
:1003DC0001F308FB0EF02C0C44EA0A44A04202FA8A
:1003EC0001F20BD91CEB040408F1FF3A80F0888071
:1003FC00A04240F28580A8F102086444241AB4FBA0
:10040C00F9F009FB104400FB0EFEADB245EA0444C2
:10041C00A64508D91CEB040400F1FF356CD2A645A7
:10042C006AD90238644440EA0840A0FB0295A4EB68
:10043C000E04AC42C846AE4656D353D0002E69D0FB
:10044C00B3EB080264EB0E0422FA01F304FA07F78B
:10045C001F43CC40C6E90074002147E70CFA02FCAC
:10046C00C2F1200125FA01F34FEA1C4720FA01F1F1
:10047C0095400D43B3FBF7F107FB11331FFA8CFECC
:10048C00280C40EA034001FB0EF3834204FA02F409
:10049C0008D91CEB000001F1FF382FD283422DD973
:1004AC0002396044C01AB0FBF7F307FB1300ADB27E
:1004BC0045EA004503FB0EF0A84208D91CEB0505E4
:1004CC0003F1FF3816D2A84214D9023B6544281A0E
:1004DC0043EA014138E73146304607E72F46E4E668
:1004EC001846F9E64B45A9D2B9EB020865EB0C0EA0
:1004FC000138A3E74346EAE7284694E74146D1E7AB
:10050C00D0467BE76444023847E7023B65442FE75B
:10051C00084606E73146E9E6704700BF80B584B06F
:10052C0000AFF860B9607A60084AFB681360084A4B
:10053C00BB681360074A7B681360054B1B68184641
:10054C0005F0B0FD00BF1037BD4680BDCC050020C6
:10055C00D0050020D405002090B587B002AF03462B
:10056C00FB71FA791A4B1B68DB689B689A420AD9B3
:10057C00174B1B685A78164B1B685B88194610463C
:10058C0005F0BAFE20E0124B1B68DB681B68FB60B1
:10059C000023FB7205E0FB685B6FFB60FB7A0133A9
:1005AC00FB72FA7AFB799A42F5D3FB681878FB68F0
:1005BC00197AFB685A88FB681C79FB68DB889BB24C
:1005CC000093234605F0FAFE1437BD4690BD00BFDC
:1005DC00D405002080B500AF024802F0E3FC00BF58
:1005EC0080BD00BFDC05002080B483B000AF786014
:1005FC007B68064A106818609188927999809A7184
:10060C0078680C37BD4680BC704700BFDC05002005
:10061C0080B582B000AF02F02DFA0346002B04D057
:10062C0005F038FD002002F031FA414B1B681B78B5
:10063C00072B77D801A252F823F000BF69060008F7
:10064C0077060008A5060008AB060008D9060008C6
:10065C00E70600080107000815070008354B1B6862
:10066C005B78184605F030FD5DE0324B1B68D87C9A
:10067C00304B1B68197D2F4B1B685B7D1A4602F0B3
:10068C00ABFE03461A462C4B1A802B4B1B88DBB255
:10069C00184605F08DFD46E005F0CEFD43E002F076
:1006AC0079FA0346002B0AD1224B1B689A79214B0D
:1006BC001B685B881946104605F01EFE33E002F0FD
:1006CC0069FA03461846FFF747FF2CE002F020FAC0
:1006DC000346184605F01EFF25E002F03BF90346E1
:1006EC00184605F051FF02F079F90346184605F05B
:1006FC0099FF18E0012005F0B1FF02F0B1F90346B3
:10070C00184605F0F1FF0EE03B461846FFF76CFF6C
:10071C0002F0A6F903461A463B4693E8030005F09F
:10072C00FFFF00E000BF00BF0837BD4680BD00BF23
:10073C00CC050020D4050020D805002080B400AFE3
:10074C0000BFBD4680BC704780B500AF052003F0EC
:10075C00FBFD0346002B16D002F056F903461A4651
:10076C000A4B1A70094B1B78012B04D0022B05D1B4
:10077C0002F054F903E002F060F900E000BF002140
:10078C00052003F0E7FE00BF80BD00BFE30500209D
:10079C0080B483B000AF78603960054A7B68136021
:1007AC00044A3B68136000BF0C37BD4680BC7047E1
:1007BC00E4050020E805002080B500AF022003F01E
:1007CC00C3FD0346002B0BD00121062003F0C2FE13
:1007DC000121072003F0BEFE0021022003F0BAFE27
:1007EC0004F068FB0346012B1ED1032003F0ACFD83
:1007FC000346002B07D00121092003F0ABFE00219A
:10080C00032003F0A7FE052003F09EFD0346002BFA
:10081C000AD001210A2003F09DFE002004F03AFBCF
:10082C000021052003F096FE04F044FB0346002B48
:10083C0012D106F05BF80246084B1B68D31A42F241
:10084C000F72934208D90121082003F083FE06F0B1
:10085C004DF80346014A136000BF80BDEC05002033
:10086C0080B584B002AF78603960114A7B68136040
:10087C00104A3B6813600F4B1B68184602F0F6FFDA
:10088C000B4B1A680B4B1B6803F2BC431946104602
:10089C0000F050FB4FF47A730093012301220649B8
:1008AC00064801F0B1FD00BF0837BD4680BD00BF52
:1008BC00F0050020F4050020F4D70008F8D7000854
:1008CC0080B483B000AF0E4B1B68DB681B685B6F9A
:1008DC007B6008E07B685B7A002B01D001230AE087
:1008EC007B685B6F7B60064B1B68DB685B687A68B8
:1008FC009A42EFD1002318460C37BD4680BC704796
:10090C00F005002080B582B002AF03F015F9034664
:10091C00002B05D10121012003F01CFE03F0E2FAAB
:10092C009D4B1B689B7E002B0FD0012003F00CFD10
:10093C000346002B09D0994803F0C6FB0346002B55
:10094C0003D00021012003F005FE002003F0FCFC85
:10095C000346002B01D000F05BFE072003F0F4FCF3
:10096C000346002B02D0022000F040FF092003F0C8
:10097C00EBFC0346002B07D0FFF7A2FF0346002B2E
:10098C0002D0052000F032FF0A2003F0DDFC034604
:10099C00002B02D0072000F029FF082003F0D4FC24
:1009AC000346002B02D0012000F020FF0B2003F0A7
:1009BC00CBFC0346002B30D0002001F00FFE034689
:1009CC00002B10D0744B1B6803F59860724B1B689E
:1009DC00B3F8BE340122194601F0AEFA0021002012
:1009EC0001F08CFE15E0012001F0F8FD0346002B10
:1009FC000FD0694B1B6803F5BA60674B1B68B3F8E3
:100A0C00CE350222194601F097FA0021012001F09F
:100A1C0075FE00210B2003F09DFD0C2003F094FCCF
:100A2C000346002B34D0032001F0D8FD0346002BE5
:100A3C0012D0594B1B6803F5FE60574B1B68B3F87B
:100A4C00EE17012300930223012201F099FA0021F1
:100A5C00032001F053FE17E0042001F0BFFD034614
:100A6C00002B11D04C4B1B6803F510604A4B1B68D4
:100A7C00B3F8FE18012300930223022201F080FA3E
:100A8C000021042001F03AFE00210C2003F062FD4D
:100A9C000D2003F059FC0346002B13D03E4B1B6872
:100AAC0003F5DC623C4B1B68B3F8DE361946104686
:100ABC0001F0FEF90021022001F020FE00210D20A2
:100ACC0003F048FD0E2003F03FFC0346002B13D02F
:100ADC00314B1B6803F521622F4B1B68B3F80E3AA0
:100AEC001946104601F006FA0021052001F006FE19
:100AFC0000210E2003F02EFD0F2003F025FC0346F1
:100B0C00002B13D0244B1B6803F54362224B1B684C
:100B1C00B3F82E3C1946104601F05AFA0021072072
:100B2C0001F0ECFD00210F2003F014FD102003F068
:100B3C000BFC0346002B13D0174B1B6803F53262DA
:100B4C00154B1B68B3F81E3B1946104601F062FAB0
:100B5C000021062001F0D2FD0021102003F0FAFC48
:100B6C000D4B1B6893F82C30012B12D10A4B1B68D0
:100B7C00002283F82C20084B1B6803F13800064B2D
:100B8C001B68B3F83814064B1B685B781A4601F0E7
:100B9C0051F800BFBD4680BDF405002000D8000808
:100BAC00F005002080B483B000AF7860034A7B6806
:100BBC00136000BF0C37BD4680BC7047F8050020A1
:100BCC0080B582B000AF7860054A7B681360054938
:100BDC00054800F00BF800BF0837BD4680BD00BFCC
:100BEC00FC050020C0360020EC35002080B582B01A
:100BFC0000AF78603960064A7B681360054A3B6831
:100C0C00136000F01DF800BF0837BD4680BD00BF63
:100C1C00000600200406002080B483B000AF78608A
:100C2C003960054A7B681360044A3B68136000BF57
:100C3C000C37BD4680BC7047140D0020180D0020E9
:100C4C0080B500AF094B1B684FF4807208491846F9
:100C5C0009F02FF8074B1B681B681A68054B1B68BB
:100C6C001B6822F004021A6000BF80BD0006002041
:100C7C00080600200406002080B584B000AF0346AF
:100C8C00FB80434B1A88434B1A80424B1B881A46F5
:100C9C00FB881344B3F5806F23DD3E4B1B88DBB21E
:100CAC005B42FB733B4B1B881A463B4B1344FA7B52
:100CBC003A4918460AF0C4F8364B00221A80FB7BDE
:100CCC00364A9918FA88FB7BD31A1A4632480AF02E
:100CDC00B7F8FB7B9BB2FA88D31A9AB22C4B1A80CA
:100CEC0010E02C4B1B881A462B4B1344FA882B49CB
:100CFC0018460AF0A5F8274B1A88FB8813449AB2B9
:100D0C00234B1A80264B1B881A46FB881344B3F5D9
:100D1C00806F07DA224B1A88FB8813449AB2204B57
:100D2C001A8009E01E4B1A88FB8813449BB2A3F56A
:100D3C0080639AB21A4B1A80062003F005FB034617
:100D4C00002B13D04FF40072002116480AF086F8DD
:100D5C00FB881A46114913480AF072F8124AFB88AC
:100D6C001380124B1B68184600F026F8FFF768FF3B
:100D7C00FB880F4A1946094803F0EEF90346002B8D
:100D8C0002D00C4B01221A7000BF1037BD4680BD3B
:100D9C000A0D0020080D002008070020080600207E
:100DAC000C0D0020080B00200E0D0020180D00204B
:100DBC0014D80008100D002080B58CB002AF7860FC
:100DCC00786802F0EFF8034683F00103DBB2002BE6
:100DDC0001D0002365E0354B1B88FB84FB8C344A27
:100DEC001946344803F0B8F938623B6A002B01D13C
:100DFC00002356E0FB8C1A462E49386A03F02BFA76
:100E0C000346FB83FA8B07F11403009313463A6AEB
:100E1C0029492A4803F0CCF90346062B01D00023BC
:100E2C003FE0BB8A3B8207F1140302331B889BB261
:100E3C00BB8107F1140304331B889BB23B8107F180
:100E4C001003184609F09EFE0346DBB20733DAB2F4
:100E5C007B681A7107F10C03184609F093FE0346E0
:100E6C00DAB27B685A7107F10803184609F08AFE5A
:100E7C000346DAB27B689A71786802F00FF9034680
:100E8C0083F00103DBB2002B01D0002309E04FF407
:100E9C0080610B4806F0A2FE0021062003F05AFBED
:100EAC00012318462837BD4680BD00BF0E0D00201B
:100EBC0078D80008080B002080D8000884D80008D7
:100ECC000008014090B583B000AF7860084B1C68F7
:100EDC007868FFF735F903469AB24FF47A7379685C
:100EEC00204608F063FE00BF0C37BD4690BD00BF26
:100EFC001C0D002080B586B000AF0346FB80FA883D
:100F0C0007F10C03094918460AF04CFB0346FB7524
:100F1C00074B1868FB7D9AB207F10C014FF47A73FA
:100F2C0008F044FE00BF1837BD4680BD8CD80008C1
:100F3C001C0D002080B483B000AF78603960054A86
:100F4C007B681360044A3B68136000BF0C37BD46D6
:100F5C0080BC7047201100202411002080B483B085
:100F6C0000AF78607B681B781A067B6801331B78AE
:100F7C001B041A437B6802331B781B0213437A68E9
:100F8C0003321278134318460C37BD4680BC7047A9
:100F9C0080B584B000AF78600B46FB70FB781946C7
:100FAC00786803F063FCF86007F108031946F868E9
:100FBC0003F07BF9FB787A681344BA681A6004234F
:100FCC0018461037BD4680BD80B588B000AF78603C
:100FDC000B467B8007F11003184601F0E3FF034634
:100FEC00002B14D007F11003184601F0B0FFC7E92D
:100FFC000601BB6907F10C021146184603F055F9BE
:10100C007B887A681344FA681A60012300E0002395
:10101C0018462037BD4680BD80B584B000AF03466E
:10102C00FB710B46BB7113467B714FF48062002140
:10103C00174809F013FF0023FB73164B1A68FB7B50
:10104C00591CF97319465278114B5A54FB7B5A1C94
:10105C00FA7319460E4AFB795354BB79002B07D00F
:10106C00FB7B5A1CFA731946094ABB79535409E0A5
:10107C007B79002B06D0FB7B5A1CFA731946044A69
:10108C007B795354FB7B18461037BD4680BD00BF9F
:10109C00200D00202011002080B584B000AF7860B6
:1010AC000B46FB700023FB81544B1B68DB681B68F1
:1010BC005B6FBB6095E0FB78013B062B00F28B80ED
:1010CC0001A252F823F000BF2B1100088311000875
:1010DC00E3110008F1100008A9110008E311000841
:1010EC00E3110008FB895A1CFA811A467B681344E9
:1010FC00BA6812781A70BB685A88FB89591CF98136
:10110C0019467B680B44D2B21A70FB895A1CFA81BF
:10111C001A467B681344BA6812791A705EE0FB8930
:10112C005A1CFA811A467B681344BA6812781A70F2
:10113C00BB685A88FB89591CF98119467B680B449A
:10114C00D2B21A70BB68DB889BB21B0A9AB2FB89BD
:10115C00591CF98119467B680B44D2B21A70BB68D2
:10116C00DB889AB2FB89591CF98119467B680B44C0
:10117C00D2B21A7032E0FB895A1CFA811A467B688B
:10118C001344BA6812781A70FB895A1CFA811A46F1
:10119C007B681344BA68127A1A701FE0BB685B7ADA
:1011AC00002B1AD0FB895A1CFA811A467B6813440F
:1011BC00BA6812781A70FB897A68D018BB680C333D
:1011CC006422194609F03CFEFB896433FB81BB6841
:1011DC0001229A7201E000BF00E000BFBB685B6FA8
:1011EC00BB60064B1B68DB685B68BA689A427FF48D
:1011FC0062AFFB8918461037BD4680BD2011002018
:10120C0090B585B000AF78600B46FB700023FB7384
:10121C00FB78013B082B00F2078101A252F823F066
:10122C00ED120008C712000835140008511200080E
:10123C006313000835140008D91300080B140008B8
:10124C001F1400087B4B1A68FB7B591CF973194659
:10125C007B680B4452781A70764B1B685B881B0AB0
:10126C009AB2FB7B591CF97319467B680B44D2B2BA
:10127C001A70704B1B685A88FB7B591CF973194602
:10128C007B680B44D2B21A706A4B1B689B881B0A92
:10129C009AB2FB7B591CF97319467B680B44D2B28A
:1012AC001A70644B1B689A88FB7B591CF97319469E
:1012BC007B680B44D2B21A70B7E05E4B1A68FB7BAA
:1012CC00591CF97319467B680B4452781A70FB7BD6
:1012DC005A1CFA731A467B68134401221A70A4E054
:1012EC00544B1A68FB7B591CF97319467B680B44E9
:1012FC0052781A704F4B1B685B881B0A9AB2FB7BA7
:10130C00591CF97319467B680B44D2B21A70494BBD
:10131C001B685A88FB7B591CF97319467B680B4474
:10132C00D2B21A70434B1B689B881B0A9AB2FB7B88
:10133C00591CF97319467B680B44D2B21A703D4B99
:10134C001B689A88FB7B591CF97319467B680B4404
:10135C00D2B21A7069E0374B1A68FB7B591CF973CF
:10136C0019467B680B4452781A70324B1B685B88A9
:10137C001B0A9AB2FB7B591CF97319467B680B4408
:10138C00D2B21A702B4B1B685A88FB7B591CF97311
:10139C0019467B680B44D2B21A70264B1B689B888B
:1013AC001B0A9AB2FB7B591CF97319467B680B44D8
:1013BC00D2B21A701F4B1B689A88FB7B591CF973AD
:1013CC0019467B680B44D2B21A702EE0194B1B687D
:1013DC005B881B0A9AB2FB7B591CF97319467B6814
:1013EC000B44D2B21A70134B1B685A88FB7B591CE6
:1013FC00F97319467B680B44D2B21A7015E00D4B89
:10140C001A68FB7B591CF97319467B680B4492795B
:10141C001A70FB7B5A1CFA731A467B689C1801F0F5
:10142C0099FA0346237000E000BFFB7B1846143783
:10143C00BD4690BD2011002080B584B000AF78600F
:10144C000B46FB700023FB81FB7819467868FFF78D
:10145C00D7FE0346FB81FB897A681344FA78114660
:10146C001846FFF719FE03461A46FB891344FB8105
:10147C00FB8919467868FFF7A7FD0346002B01D1BD
:10148C00002304E0FB890433FB81FB89DBB21846A3
:10149C001037BD4680BD80B584B000AFF8607A606F
:1014AC001A460B467B8113463B817B89FA681344B1
:1014BC003A897968184609F0C3FC3B89DBB21846B7
:1014CC001037BD4680BD000080B586B000AFB96056
:1014DC007A601A460346FB731346BB810023FB75E7
:1014EC00FB7B033B082B00F28D8001A252F823F00A
:1014FC00211500083D1500081116000811160008EA
:10150C00591500088715000811160008D915000890
:10151C00F5150008FB7DBA681344BA89796818463A
:10152C0009F08EFCBB89DAB2FB7D1344FB756AE0D3
:10153C00FB7DBA681344BA897968184609F080FCB7
:10154C00BB89DAB2FB7D1344FB755CE0FB7D5A1C56
:10155C00FA751A46BB68134497F820201A70FB7D65
:10156C00BA681344BA897968184609F069FCBB89D2
:10157C00DAB2FB7D1344FB7545E0FB7D5A1CFA7512
:10158C001A46BB68134497F824201A70FB7D5A1C2A
:10159C00FA751A46BB68134497F828201A70FB7D1D
:1015AC005A1CFA751A46BB68134497F82C201A700B
:1015BC00FB7DBA681344BA897968184609F040FC77
:1015CC00BB89DAB2FB7D1344FB751CE0FB7DBA686A
:1015DC001344BA897968184609F032FCBB89DAB22F
:1015EC00FB7D1344FB750EE0FB7DBA681344BA898E
:1015FC007968184609F024FCBB89DAB2FB7D1344E8
:10160C00FB7500E000BFFB7D18461837BD4680BD5A
:10161C0080B582B000AF4FF4807009F0F1FB034647
:10162C007B6000237B8000220421F520FFF7F4FC73
:10163C0003467B807B88002B04D1786809F0E8FB9B
:10164C00002339E004217868FFF7F6FE03467B702F
:10165C007B78002B04D1786809F0DAFB00232BE0AF
:10166C007B789BB279887A681548FFF714FF03469C
:10167C009AB27B8813447B807B88DBB21946104876
:10168C00FFF786FC03469AB27B8813447B807B88E9
:10169C001A460B490B4802F09DFC0346002B07D061
:1016AC000948FFF70FFC786809F0B2FB012303E04F
:1016BC00786809F0ADFB002318460837BD4680BD9D
:1016CC00200D0020BCD80008D0D8000890B5C9B0B7
:1016DC0004AF044607F58870A0F5887001601046C9
:1016EC00194607F58873A3F2091322461A7007F5F9
:1016FC008873A3F5867302461A8007F58873A3F5E1
:10170C0085730A461A70002387F80F3107F5887322
:10171C00A3F209131B781A460021F220FFF77CFC78
:10172C00034687F80F3197F80F31002B01D10023B6
:10173C0052E007F58873A3F586731C8807F5887348
:10174C00A3F5887207F10C0107F58873A3F209134E
:10175C00187897F82831039397F82431029397F867
:10176C002031019307F58873A3F585731B780093DB
:10177C0023461268FFF7A8FE034687F80E3197F848
:10178C000F3199B297F80E319BB207F10C02154844
:10179C00FFF781FE03461A4697F80F31134487F87A
:1017AC000F3197F80F3119460E48FFF7F1FB03463E
:1017BC001A4697F80F31134487F80F3197F80F3109
:1017CC009BB21A460749084802F004FC0346002B5A
:1017DC0001D1002300E00123184607F58A77BD46A6
:1017EC0090BD00BF200D0020BCD8000880B5ADF521
:1017FC00826D00AF024607F58263A3F209431A70AB
:10180C000023A7F80E3407F10C034FF4806200217B
:10181C00184609F023FB4FF480620021264809F09A
:10182C001DFB07F58263A3F209431B7800221946BE
:10183C00F120FFF7F1FB0346A7F80C3407F58263A0
:10184C00A3F209431A7807F10C0311461846FFF767
:10185C00F3FD0346A7F80E34B7F80E3407F10C026B
:10186C00B7F80C141448FFF716FE03469AB2B7F8F3
:10187C000C341344A7F80C34B7F80C34DBB219460B
:10188C000D48FFF785FB03469AB2B7F80C341344A6
:10189C00A7F80C34B7F80C341A460749074802F07D
:1018AC0099FB0346002B01D1002300E001231846CD
:1018BC0007F58267BD4680BD200D0020BCD800080E
:1018CC0090B583B000AF78600B467B807B88043B7F
:1018DC007A6813441846FFF741FB04467B88043BA7
:1018EC001946786802F0C2FF03469C4201D00023DF
:1018FC0000E0012318460C37BD4690BD80B483B080
:10190C0000AF78600B46FB707B681B78FA789A42C4
:10191C0005D07B681B78FF2B01D0002300E001234E
:10192C0018460C37BD4680BC704780B483B000AFFE
:10193C0078607B6801331B7818460C37BD4680BC39
:10194C00704780B483B000AF78607B6802331B783B
:10195C0018460C37BD4680BC704780B483B000AFCE
:10196C0078607B6803331B7818460C37BD4680BC07
:10197C00704780B483B000AF78607B6802331B780B
:10198C0018460C37BD4680BC7047000090B58BB034
:10199C0006AF78600B467B800323FB73FB7B5A1CE2
:1019AC00FA731A467B6813441B78BB73FB7B5A1C77
:1019BC00FA731A467B6813441B787B73FB7B5A1CA7
:1019CC00FA731A467B6813441B783B73FB7B5A1CD7
:1019DC00FA731A467B6813441B78FB72154B1B6811
:1019EC0003F521634FF480720021184609F036FA92
:1019FC00114B1B6803F25450BC7B7B7B3A7BF97A0E
:101A0C0005910E49049103920D4A029201930D4BDC
:101A1C00009323460C4A0D4909F0C4FD03463B8153
:101A2C00054B1B683A89A3F8522500BF1437BD46F5
:101A3C0090BD00BFE81A00202411002040D90008F6
:101A4C005CD9000880D90008F8D8000820D9000813
:101A5C0080B584B000AF78600B467B800323FB73AA
:101A6C007B88043BBB81FB7B5A1CFA731A467B6850
:101A7C0013441B78FB72FB7A012B02D0022B55D03E
:101A8C00AAE0584B1B680022A3F8722748E0554B7C
:101A9C001B6803F27473534A1268B2F872279818D1
:101AAC00FB7B7A6813441B781A464F4909F07AFD80
:101ABC000346BB724B4B1B68B3F87217BB7A9AB2D6
:101ACC00484B1B680A4492B2A3F87227FB7B013384
:101ADC00FB73FB7B7A681344184602F0CFFB03467A
:101AEC003B81404B1B6803F274733E4A1268B2F898
:101AFC00722713443A893D49184609F053FD0346B1
:101B0C00BB72384B1B68B3F87217BB7A9AB2354B61
:101B1C001B680A4492B2A3F87227FB7B0233FB7357
:101B2C00FB7B9BB2BA899A42B1D855E02D4B1B680E
:101B3C0003F274732B4A1268B2F872279818FB7B65
:101B4C007A6813441B781A46294909F02BFD034681
:101B5C00BB72244B1B68B3F87217BB7A9AB2214B39
:101B6C001B680A4492B2A3F87227FB7B0133FB7308
:101B7C00FB7B5A1CFA731A467B6813441B78012BA7
:101B8C0001D0022B00E000BFFB7B7A68134418469F
:101B9C0002F074FB03463B81124B1B6803F2747317
:101BAC00104A1268B2F8722713443A890F49184642
:101BBC0009F0F8FC0346BB720A4B1B68B3F87217AA
:101BCC00BB7A9AB2074B1B680A4492B2A3F87227ED
:101BDC00FB7B0233FB7300BFFB7A18461037BD4604
:101BEC0080BD00BF24110020A0D90008A8D900088E
:101BFC00ACD9000880B485B000AF78600023FB73CB
:101C0C007B6803331B78012B04D0022B05D10223F4
:101C1C00FB7303E00123FB7300E000BF044B1B6864
:101C2C00FA7B9A71FB7B18461437BD4680BC704713
:101C3C0020110020B0B58AB002AF78600B467B80D3
:101C4C0013467B707B8819467868FFF739FE03468C
:101C5C00002B00F020817B7819467868FFF74EFE48
:101C6C000346002B00F019817868FFF75EFE0346EF
:101C7C00FB77FB7FF13B052B00F2118101A252F89F
:101C8C0023F000BFA91C0008231D0008D71D000865
:101C9C00771E0008AB1E00088F1E00087868FFF73F
:101CAC0050FE0346FB75FB7D032B02D0062B0AD09E
:101CBC0030E07B8819467868FFF768FE0121052023
:101CCC0000F0AAFD26E07B8819467868FFF7C0FE75
:101CDC000346BB7503F0EEF80346002B06D0012B30
:101CEC0014D10121052002F035FC12E0BB7D022B42
:101CFC0004D10121062000F08FFD09E0BB7D012BF2
:101D0C0006D10021072000F087FD01E000BF00E0B4
:101D1C0000BF00BFC6E07868FFF72BFE0346BB7719
:101D2C00BB7F013B072B4ED801A252F823F000BF1A
:101D3C005D1D0008671D0008D31D0008D31D000899
:101D4C00D31D0008D31D0008B91D0008C91D0008CB
:101D5C000121022002F0FEFB36E07B6803331846BB
:101D6C0002F0C5FAB861BB6900221C46154607F1A2
:101D7C000C031A462046294601F0AEF84B4B1B6863
:101D8C003A7CDA74494B1B687A7C1A75474B1B6892
:101D9C00BA7C5A7501F06EFAB97B3A7C787CBB7CC4
:101DAC0000930346002001F0C5F90DE07868FFF7B9
:101DBC0021FF0346184600F049F905E001210520F2
:101DCC0002F0C8FB00E000BF6CE07868FFF7C5FDCF
:101DDC0003467B777B7F013B062B3CD801A252F854
:101DEC0023F000BF0D1E0008211E0008631E000812
:101DFC00631E0008351E0008631E0008491E0008FB
:101E0C007B6802331B78012B27D10021082002F0BC
:101E1C00A1FB22E07B6802331B78012B1FD1002130
:101E2C00072002F097FB1AE07B6802331B78012B2A
:101E3C0017D10021092002F08DFB12E07B680233E0
:101E4C001B78012B0FD100210A2002F083FB00200C
:101E5C0003F020F807E000BF24E000BF22E000BF41
:101E6C0020E000BF1EE000BF1CE07868FFF781FD9A
:101E7C000346BB77BB7F072B01D0082B00E000BFCC
:101E8C0010E07B6802331B78012B0AD10021002063
:101E9C0002F060FB05E000BF04E000BF02E000BF01
:101EAC0000E000BF2037BD46B0BD00BF20110020B0
:101EBC0080B586B004AF78600B467B807A880023AF
:101ECC0002930323019303230093002379680320D7
:101EDC00FFF7FCFB0346002B04D00548FEF7F2FF8E
:101EEC00012300E0002318460837BD4680BD00BF23
:101EFC00BCD9000880B586B004AF78600B467B80F7
:101F0C007A88002302930323019303230093002375
:101F1C0079680420FFF7DAFB0346002B04D0054850
:101F2C00FEF7D0FF012300E0002318460837BD461A
:101F3C0080BD00BFE4D9000880B586B004AF7860DE
:101F4C000B467B8013467B707B787A88002102914C
:101F5C00032101910321009179680720FFF7B6FB5B
:101F6C000346002B04D00548FEF7ACFF012300E02C
:101F7C00002318460837BD4680BD00BF0CDA0008A8
:101F8C0080B586B004AF7860084611461A46034601
:101F9C007B800B467B7013463B707A883B7C0293AC
:101FAC003B7801937B780093002379680820FFF736
:101FBC008DFB0346002B04D00448FEF783FF01235E
:101FCC0000E0002318460837BD4680BD34DA00080F
:101FDC0080B586B004AF78600B467B807A8800238E
:101FEC0002930323019303230093002379680420B5
:101FFC00FFF76CFB0346002B04D00548FEF762FF8D
:10200C00012300E0002318460837BD4680BD00BF01
:10201C0064DA000880B586B004AF78600B467B802C
:10202C007A88002302930323019303230093002354
:10203C0079680420FFF74AFB0346002B01D00123EB
:10204C0000E0002318460837BD4680BD80B582B03D
:10205C0000AF0346FB71FB79012B02D0022B06D09B
:10206C000BE001221021074805F0A0FD05E000223D
:10207C001021044805F09AFD00BFFB79184608377B
:10208C00BD4680BD0008014080B584B000AFF8604B
:10209C00B9607A60074A7B681360074AFB68136073
:1020AC00064ABB68136000F00BF800BF1037BD4642
:1020BC0080BD00BF30110020281100202C11002001
:1020CC0080B500AF094B1B684FF480720849184665
:1020DC0007F0EFFD074B1B681B681A68054B1B6864
:1020EC001B6822F004021A6000BF80BD281100207A
:1020FC00381300202C11002080B584B000AF0346AB
:10210C00FB80564B1A88564B1A80554B1B881A4627
:10211C00FB881344B3F5007F22DD514B1B88C3F5BC
:10212C000073FB814E4B1B881A464E4B1344FA89A5
:10213C004D49184608F084FE494B00221A80FB8951
:10214C00494A9918FA88FB89D31A1A46454808F067
:10215C0077FEFA88FB89D31A9AB2404B1A8010E0AA
:10216C003F4B1B881A463F4B1344FA883E4918468E
:10217C0008F066FE3A4B1A88FB8813449AB2374B28
:10218C001A803A4B1B881A46FB881344B3F5007F20
:10219C0007DA364B1A88FB8813449AB2334B1A80F1
:1021AC0009E0324B1A88FB8813449BB2A3F50073E9
:1021BC009AB22E4B1A80FFF783FFFB882C4A1946E4
:1021CC00294801F0C9FF0346002B02D0294B0122FC
:1021DC001A70FB88284A1946234801F0BDFF0346B4
:1021EC00002B08D0FB881A461F49244808F028FE0B
:1021FC00234AFB881380FB88224A19461A4801F0AF
:10220C00ABFF0346002B08D0FB881A4616491B4827
:10221C0008F016FE1A4AFB881380FB881A4A1946E6
:10222C00114801F099FF0346002B13D0FB88174A85
:10223C0019460D4801F090FF0346002B0AD0FB888D
:10224C001A460949124808F0FBFDFB88194610484C
:10225C0001F030FC00BF1037BD4680BD36110020A8
:10226C0034110020381100203813002038190020B8
:10227C0098DA00083C190020A4DA00083814002071
:10228C003E190020ACDA0008B4DA0008C4DA000801
:10229C003815002080B5ADF5047D00AF07F504734B
:1022AC00A3F5037318600A4607F50473A3F20E2313
:1022BC001A80022387F80B3207F50473A3F20E235E
:1022CC0007F50472A2F20E2212884A49A1FB0212EF
:1022DC0052091A80002387F80F3207F108034FF4D4
:1022EC0000720021184608F0B9FD0023A7F80C3243
:1022FC0073E007F50473A3F20E231B88184604F051
:10230C00FFFA3D4B1A883D4B1B889A4215D93A4B24
:10231C001B88DAB2394B1B88DBB2D31A87F80F3221
:10232C00364B1B881A46364BD11897F80F2207F1FB
:10233C000803184608F084FD2AE02F4B1A882F4B0F
:10234C001B889A4243D22C4B1B88DAB22B4B1B882E
:10235C00DBB2D31A87F80F32284B1B881A46284B4E
:10236C00D118264B1B88C3F500731A4607F10803D6
:10237C00184608F065FD214B1B88C3F5007307F167
:10238C00080213441C4A12881D49184608F058FDCF
:10239C0097F80F3299B207F50473A3F5037307F19D
:1023AC0008001A6801F0D8FE0346002B01D0012367
:1023BC001AE097F80F3299B207F10803114A184640
:1023CC0001F0CAFE0346002B02D000230CE000BF34
:1023DC00B7F80C320133A7F80C32B7F80C32B3F55E
:1023EC00FA7F86D397F80B32184607F50477BD466B
:1023FC0080BD00BFD34D6210381900203A1900205F
:10240C0038110020D4DA000880B59EB000AFF86017
:10241C00B96011461A460B46FB711346BB7107F1A6
:10242C001003FA681849184609F0BCF8034687F8F7
:10243C007730164B186897F877309AB207F110017D
:10244C004FF6FF7307F0B2FB0346002B02D0104887
:10245C00FEF738FDFB79012B11D1D7F880309BB2F8
:10246C001946B868FFF716FF034687F87630BB7934
:10247C00012B01D100F00EF897F8763000E0022322
:10248C0018467837BD4680BDDCDA000828110020DC
:10249C00E4DA000880B400AF034B1A88034B1A80AF
:1024AC0000BFBD4680BC7047381900203A19002087
:1024BC0080B586B002AF0346FB710023FB73FB793A
:1024CC00042B65D801A252F823F000BFED240008BC
:1024DC007125000845250008192500089D250008D0
:1024EC004FF4FA630093012301222C492C48FFF787
:1024FC008BFF0346012B05D10123FB732948FEF703
:10250C00E1FC46E02848FEF7DDFC42E04FF4FA63BC
:10251C0000930123012225492548FFF775FF034647
:10252C00012B03D12348FEF7CDFC32E00123FB73D2
:10253C002148FEF7C7FC2CE04FF4FA63009301230B
:10254C0001221E491E48FFF75FFF0346012B05D1F0
:10255C000123FB731B48FEF7B5FC1AE01A48FEF783
:10256C00B1FC16E04FF4FA630093012301221749E2
:10257C001748FFF749FF0346012B03D11548FEF717
:10258C00A1FC06E00123FB731348FEF79BFC00E063
:10259C0000BFFB7B18461037BD4680BDC0DB000872
:1025AC00D0DB0008DCDB0008F0DB000808DC0008EE
:1025BC001CDC000828DC000854DC000868DC00087F
:1025CC0074DC000880DC0008A4DC0008E0DC0008F7
:1025DC00ECDC0008F4DC000838DD000880B485B0C1
:1025EC0000AF0346FB710023FB73FB79072B7BD8F1
:1025FC0001A252F823F000BF252600083F26000850
:10260C008D2600087326000859260008A726000806
:10261C00DB260008C1260008374B1B6893F8BC3436
:10262C00C3F30003DBB2002B14BF01230023FB73A5
:10263C005BE0314B1B6893F8CC35C3F30003DBB282
:10264C00002B14BF01230023FB734EE02A4B1B68A5
:10265C0093F8FC38C3F30003DBB2002B14BF012347
:10266C000023FB7341E0244B1B6893F8EC37C3F356
:10267C000003DBB2002B14BF01230023FB7334E0F7
:10268C001D4B1B6893F8DC36C3F30003DBB2002B45
:10269C0014BF01230023FB7327E0174B1B6893F82F
:1026AC000C3AC3F30003DBB2002B14BF012300234D
:1026BC00FB731AE0104B1B6893F82C3CC3F300031C
:1026CC00DBB2002B14BF01230023FB730DE00A4B7C
:1026DC001B6893F81C3BC3F30003DBB2002B14BF45
:1026EC0001230023FB7300E000BFFB7B184614376B
:1026FC00BD4680BC704700BF3011002080B483B051
:10270C0000AF03460A46FB711346BB71FB79072BDE
:10271C007AD801A252F823F0452700085F27000859
:10272C00AD2700089327000879270008C727000861
:10273C00FB270008E1270008364B1A68BB7903F029
:10274C000103D9B292F8BC3461F3000382F8BC34B3
:10275C005BE0304B1A68BB7903F00103D9B292F8F5
:10276C00CC3561F3000382F8CC354EE0294B1A6866
:10277C00BB7903F00103D9B292F8FC3861F3000382
:10278C0082F8FC3841E0234B1A68BB7903F0010353
:10279C00D9B292F8EC3761F3000382F8EC3734E0ED
:1027AC001C4B1A68BB7903F00103D9B292F8DC36E2
:1027BC0061F3000382F8DC3627E0164B1A68BB790C
:1027CC0003F00103D9B292F80C3A61F3000382F8DA
:1027DC000C3A1AE00F4B1A68BB7903F00103D9B21B
:1027EC0092F82C3C61F3000382F82C3C0DE0094B71
:1027FC001A68BB7903F00103D9B292F81C3B61F360
:10280C00000382F81C3B00E000BF00BF0C37BD4644
:10281C0080BC70473011002080B483B000AF0346F9
:10282C000A46FB711346BB71FB79072B7AD801A2C0
:10283C0052F823F0612800087B280008C9280008FA
:10284C00AF28000895280008E3280008172900087D
:10285C00FD280008364B1A68BB7903F00103D9B286
:10286C0092F8BC3461F3410382F8BC345BE0304B2A
:10287C001A68BB7903F00103D9B292F8CC3561F335
:10288C00410382F8CC354EE0294B1A68BB7903F032
:10289C000103D9B292F8FC3861F3410382F8FC3899
:1028AC0041E0234B1A68BB7903F00103D9B292F8CB
:1028BC00EC3761F3410382F8EC3734E01C4B1A68B7
:1028CC00BB7903F00103D9B292F8DC3661F3410312
:1028DC0082F8DC3627E0164B1A68BB7903F001034B
:1028EC00D9B292F80C3A61F3410382F80C3A1AE02F
:1028FC000F4B1A68BB7903F00103D9B292F82C3C48
:10290C0061F3410382F82C3C0DE0094B1A68BB794A
:10291C0003F00103D9B292F81C3B61F3410382F836
:10292C001C3B00E000BF00BF0C37BD4680BC7047AD
:10293C003011002080B483B000AF0346FB71044A11
:10294C00FB79137000BF0C37BD4680BC704700BFCD
:10295C000000002080B400AF024B1B781846BD4627
:10296C0080BC70470000002080B400AF024B1B7885
:10297C001846BD4680BC70470100002080B400AFF3
:10298C00094B1B889BB2632B03D9074B00221A807F
:10299C0006E0054B1B889BB201339AB2024B1A809E
:1029AC0000BFBD4680BC70474019002080B400AF0A
:1029BC00094B1B889BB2002B03D1074B64221A8056
:1029CC0006E0054B1B889BB2013B9AB2024B1A8066
:1029DC0000BFBD4680BC70474019002080B400AFDA
:1029EC00034B1B889BB21846BD4680BC704700BF8A
:1029FC004019002080B400AF024B1B781846BD462E
:102A0C0080BC70474219002080B400AF024B1B7889
:102A1C001846BD4680BC70470200002098B500AF38
:102A2C00FFF7DCFF03461C46FFF79EFF03461946E3
:102A3C00204603F04FF800BF98BD90B583B000AFAF
:102A4C00FFF7D8FF0346FB80FC88FFF78DFF03469A
:102A5C001946204603F03EF800BF0C37BD4690BD2A
:102A6C0080B400AF024B1B781846BD4680BC704743
:102A7C000400002080B400AF034B1B78DBB2184677
:102A8C00BD4680BC704700BF5119002080B483B094
:102A9C0000AF0346FB71044AFB79137000BF0C377F
:102AAC00BD4680BC704700BF5119002080B485B072
:102ABC0000AFF860B9607A60064AFB681360064A9A
:102ACC00BB681360054A7B68136000BF1437BD46B2
:102ADC0080BC704748190020441900204C19002074
:102AEC0080B400AF094B1B78002B05D0012B07D10C
:102AFC00064B00221A7004E0044B01221A7000E00D
:102B0C0000BF00BFBD4680BC704700BF0300002063
:102B1C0080B400AF024B1B781846BD4680BC704792
:102B2C000300002080B483B000AF78600B46FB70CC
:102B3C007B681B78DBB2FA789A4203D87B68002258
:102B4C001A7006E07B681B78DBB20133DAB27B6863
:102B5C001A7000BF0C37BD4680BC704780B483B080
:102B6C0000AF78600B46FB707B681B78DBB2002BE8
:102B7C0003D17B68FA781A7006E07B681B78DBB2AD
:102B8C00013BDAB27B681A7000BF0C37BD4680BCC3
:102B9C007047000080B400AF034B1B78DBB21846C3
:102BAC00BD4680BC704700BF5019002080B483B074
:102BBC0000AF0346FB71044AFB79137000BF0C375E
:102BCC00BD4680BC704700BF5019002080B500AFD7
:102BDC002E4B1B681B78072B55D801A252F823F0FB
:102BEC000D2C0008232C0008332C0008432C000863
:102BFC00532C0008632C0008732C0008832C00084D
:102C0C00224B1B6803221A700020FFF7CFFF012014
:102C1C00FFF73CFF38E01D4B1B6803221A700120A4
:102C2C00FFF734FF30E0194B1B6803221A700120A8
:102C3C00FFF72CFF28E0154B1B6804221A700120AB
:102C4C00FFF724FF20E0114B1B6800221A700120B3
:102C5C00FFF71CFF18E00D4B1B6800221A700120B7
:102C6C00FFF714FF10E0094B1B6800221A700120BB
:102C7C00FFF70CFF08E0054B1B6800221A700120BF
:102C8C00FFF704FF00E000BF00BF80BD4819002023
:102C9C0080B500AF2C4B1B681B78072B4FD801A2BB
:102CAC0052F823F04B2D00084B2D00084B2D00083B
:102CBC004B2D0008D12C0008052D00080F2D000805
:102CCC003B2D0008FFF724FF0346012B07D11E4BB9
:102CDC001B6806221A700120FFF7D8FE31E0FFF7BF
:102CEC0017FF0346002B2CD1174B1B6805221A70BB
:102CFC000120FFF7CBFE24E00121052001F02AFC86
:102D0C0020E0FFF7ADFE0346012B03D10120FFF7B6
:102D1C009DF902E00220FFF799F9FDF75BFC0A4BE5
:102D2C001B6807221A700120FFF7B0FE0AE0064B61
:102D3C001B6806221A700120FFF7A8FE02E000BFF4
:102D4C0000E000BF00BF80BD4819002080B500AF77
:102D5C00214B1B681B78072B3AD801A252F823F0A1
:102D6C00DD2D0008DD2D0008DD2D00088D2D00085F
:102D7C00A52D0008B12D0008BD2D0008DD2D000883
:102D8C00164B1B689B68DBB219461548FFF7CAFE49
:102D9C000120FFF77BFE1CE0FFF7A2FE0120FFF7EE
:102DAC0075FE16E0FFF702FE0120FFF76FFE10E044
:102DBC000C4B1B78002B05D0012B07D1094B0022A3
:102DCC001A7004E0074B01221A7000E000BF00E00B
:102DDC0000BF00BF80BD00BF48190020441900206F
:102DEC00501900200400002080B500AF224B1B6856
:102DFC001B78072B3DD801A252F823F07F2E000838
:102E0C007F2E00087F2E0008292E0008412E000876
:102E1C004D2E0008592E00087F2E0008174B1B68FA
:102E2C009B68DBB219461648FFF798FE0120FFF7A6
:102E3C002DFE1FE0FFF754FE0120FFF727FE19E0DF
:102E4C00FFF79CFD0120FFF721FE13E00D4B1B78D3
:102E5C00002B05D0012B07D10A4B00221A7004E07D
:102E6C00084B01221A7000E000BF0120FFF70EFE94
:102E7C0000E000BF00BF80BD4819002044190020AD
:102E8C00501900200400002080B500AF0120FFF78E
:102E9C00FDFD02F001FE0120FFF74CFD00BF80BDDF
:102EAC0080B500AF0120FFF7F1FD02F0F5FD002029
:102EBC00FFF740FD00BF80BD80B582B000AF7860E9
:102ECC00044A7B68136000F0D5F900BF0837BD4693
:102EDC0080BD00BF5419002080B586B000AFC7E993
:102EEC0002017A6007F10803184607F079FE786151
:102EFC007B695B69DBB2643BDAB27B681A707B6915
:102F0C001B69DBB20133DAB27B685A707B69DB6810
:102F1C00DAB27B689A707B699B69DBB20133DAB2F7
:102F2C007B68DA707B699B68DBB20733DAB27B684B
:102F3C001A717B695B68DAB27B685A717B691B68B2
:102F4C00DAB27B689A7100BF1837BD4680BD80B578
:102F5C008EB000AF78607B681B7864333B627B6813
:102F6C005B78013BFB617B689B78BB617B681B7961
:102F7C00073B7B617B685B793B617B689B79FB6082
:102F8C004FF0FF33FB6207F10C03184608F046F8CC
:102F9C00C7E90C01D7E90C23104619463837BD4652
:102FAC0080BD000080B586B002AF78600023FB7353
:102FBC000023BB6007F10C0300210A461A800A4665
:102FCC009A70354B186807F10F024FF0FF330093DE
:102FDC000123D02104F078FF0346002B01D00023FD
:102FEC0055E02D4B186807F108024FF0FF330093A2
:102FFC000723D02105F066F80346002B01D00023EF
:10300C0045E03B7A03F07F03DBB2184600F0A8F9E9
:10301C0003461A467B689A717B7A03F07F03DBB216
:10302C00184600F09DF903461A467B685A71BB7A24
:10303C0003F03F03DBB2184600F092F903461A4640
:10304C007B681A71FB7A03F00703DAB27B68DA70DB
:10305C003B7B03F03F03DBB2184600F081F90346DB
:10306C001A467B689A707B7B03F01F03DBB2184611
:10307C0000F076F903461A467B685A70BB7B1846FB
:10308C0000F06EF903461A467B681A700123184645
:10309C001037BD4680BD00BF5419002080B588B0E4
:1030AC0002AF78600023FB75FB7D3B737B689B79DB
:1030BC00184600F06DF903467B737B685B79184604
:1030CC0000F066F90346BB737B681B79184600F069
:1030DC005FF90346FB737B68DB783B747B689B78FA
:1030EC00184600F055F903467B747B685B781846EC
:1030FC0000F04EF90346BB747B681B78184600F051
:10310C0047F90346FB740A4B186807F10C024FF0A1
:10311C00FF3300930823D02104F0D6FE0346002B86
:10312C0001D0002300E0012318461837BD4680BDAE
:10313C005419002090B589B002AF044608461146D8
:10314C001A462346FB710346BB710B467B71134633
:10315C003B7197F82830184600F01AF90346FB75B6
:10316C003B79184600F014F90346BB757B79184679
:10317C0000F00EF903467B75BB79184600F008F990
:10318C0003463B75FB79042B38D801A252F823F087
:10319C0009320008B1310008BB310008CD310008FC
:1031AC00E73100083B7D63F07F033B7527E03B7DF7
:1031BC0063F07F033B757B7D63F07F037B751EE0C3
:1031CC003B7D63F07F033B757B7D63F07F037B75F9
:1031DC00BB7D63F07F03BB7511E03B7D63F07F0328
:1031EC003B757B7D63F07F037B75BB7D63F07F0359
:1031FC00BB75FB7D63F07F03FB7500E000BF07230D
:10320C00FB74FB7C3B73FB7D7B73BB7DBB737B7D5A
:10321C00FB733B7D3B74164B186807F10C024FF0A7
:10322C00FF3300930523D02104F04EFE0346002B00
:10323C0001D0002317E00023FB7207F10B031946A2
:10324C000E2000F03DF8FB7A43F00103DBB2FB7279
:10325C00FB7A43F00403DBB2FB72FB7A19460E20B7
:10326C0000F05AF8012318461C37BD4690BD00BF2C
:10327C005419002080B582B000AFFB1D19460E20FA
:10328C0000F01EF8FB7923F00103DBB2FB71FB7934
:10329C0019460E2000F040F8BB1D19460F2000F017
:1032AC000FF8BB7923F00103DBB2BB71BB79194674
:1032BC000F2000F031F8012318460837BD4680BDB9
:1032CC0080B584B002AF03463960FB71114B1868AE
:1032DC00FA1D4FF0FF3300930123D02104F0F4FDCD
:1032EC000346002B01D000230FE00A4B18684FF067
:1032FC00FF33009301233A68D02104F0E3FE034628
:10330C00002B01D0002300E0012318460837BD46EE
:10331C0080BD00BF5419002080B586B002AF0346B3
:10332C000A46FB711346BB71FB793B73BB797B730C
:10333C000A4B186807F10C024FF0FF33009302237D
:10334C00D02104F0C1FD0346002B01D0002300E086
:10335C00012318461037BD4680BD00BF541900200C
:10336C0080B483B000AF0346FB71FB791B09DBB261
:10337C001A46920013445B00DAB2FB7903F00F0398
:10338C00DBB21344DBB218460C37BD4680BC704729
:10339C0080B483B000AF0346FB71FB790D4AA2FBEE
:1033AC000323DB08DBB21B0158B2FA79094BA3FBF0
:1033BC000213D9080B469B000B445B00D31ADBB2FB
:1033CC005BB203435BB2DBB218460C37BD4680BC24
:1033DC00704700BFCDCCCCCC80B584B000AF0346D9
:1033EC00FB710B46BB7113467B7107F10803184642
:1033FC00FFF7D8FD034683F00103DBB2002B01D0AD
:10340C00002341E03B7BFA799A4204D3FB793A7B67
:10341C009B1A122B01DD002336E03B7BFA799A4292
:10342C0005D17B7BBA799A4201D200232CE03B7BFD
:10343C00FA799A4209D17B7BBA799A4205D1BB7B46
:10344C007A799A4201D200231EE0FB793A7B9B1ACF
:10345C009BB21A461201D31A1A461201D31A1B0137
:10346C009AB2BB79797B5B1A9BB219460901CB1ACC
:10347C009B009BB213449AB27B7999B2BB7B9BB2F3
:10348C00CB1A9BB213449BB218461037BD4680BD75
:10349C0080B500AF094B1B6880220949184606F01D
:1034AC0008FC084B1B681B681A68064B1B681B68DA
:1034BC0022F004021A6000BF80BD00BF5819002022
:1034CC00641900205C19002080B582B000AF03465F
:1034DC00FB80FB881A460E490E4807F0B1FCFFF73B
:1034EC00D7FFFB880C4A19460A4800F035FE034604
:1034FC00002B02D0094B01221A70FB88DBB2194653
:10350C00044800F033F800BF0837BD4680BD00BF4B
:10351C0064190020E41900209CDD0008E41A002046
:10352C0080B485B000AF0346FB710F4B1B68DB68A2
:10353C001B685B6FFB6009E0FB681B78FA799A42A9
:10354C0001D101230AE0FB685B6FFB60064B1B6833
:10355C00DB685B68FA689A42EED100231846143790
:10356C00BD4680BC704700BF601900202DE9F043B8
:10357C00DBB01AAF78600B46FB706B461E467B685F
:10358C001B78012B40F065817B6801331B78013B74
:10359C0087F8F33097F8F330591C4B1EC7F8EC3012
:1035AC000A460023904699464FF000024FF0000364
:1035BC004FEAC90343EA58734FEAC8020A4600238C
:1035CC0014461D464FF000024FF00003EB0043EA97
:1035DC005473E2000B460733DB08DB00ADEB030D45
:1035EC001AAB0033C7F8E83097F8F33001331A46BA
:1035FC000021D7F8E80007F031FC7B68033397F81B
:10360C00F3201946D7F8E80007F01AFCD7F8E800C1
:10361C0007F0B8FA034687F8E73097F8E730184612
:10362C0001F08EF8034683F00103DBB2002B40F06F
:10363C001281002387F8F930002387F8FA30002331
:10364C0087F8FB300023A7F8FC30002387F8FF3005
:10365C0097F8F33003331A467B6813441B7887F8CA
:10366C00E63097F8E630082B09D0082B0FDC042B3A
:10367C0009D0072B0BD1022387F8FA3008E001237D
:10368C0087F8FA3004E0012387F8FF3000E000BF30
:10369C0097F8FA30002B04D197F8FF30002B00F08C
:1036AC00DC8097F8FF30002B0BD097F8F330053304
:1036BC007A6813441B7887F8FB30012387F8F930BC
:1036CC0028E097F8F33004337A6813441B78022B04
:1036DC0002D0642B0FD01DE097F8F33005337A68D5
:1036EC001344184600F0CAFD0346A7F8FC30022329
:1036FC0087F8F9300EE097F8F33005337A68D11873
:10370C0007F180036422184607F09AFB032387F81D
:10371C00F93000BF97F8E7301846FFF701FF034672
:10372C0083F00103DBB2002B44D007F10C037222AF
:10373C000021184607F092FB01233B7401233B75D3
:10374C0097F8E7303B7397F8F930032B11D0032B24
:10375C001EDC012B02D0022B04D019E097F8FB30B1
:10376C00FB7516E097F8FA303B74B7F8FC307B82A7
:10377C000FE097F8FA303B7407F1800107F10C0366
:10378C000C336422184607F05BFB01237B7500E0C9
:10379C0000BF354B1B68DC68684607F118036622CE
:1037AC00194607F04DFB07F10C030ECB204601F038
:1037BC00A5FA4CE02C4B1B68DB681B685B6FC7F8E9
:1037CC00F4303CE0D7F8F4301B7897F8E7209A42B5
:1037DC0030D197F8F930032B17D0032B28DC012BB1
:1037EC0002D0022B06D023E0D7F8F43097F8FB2058
:1037FC00DA721EE0D7F8F43097F8FA201A71D7F87D
:10380C00F430B7F8FC20DA8013E0D7F8F43097F8EE
:10381C00FA201A71D7F8F4300C3307F180016422C6
:10382C00184607F00DFBD7F8F43001225A7200E06D
:10383C0000BF13E0D7F8F4305B6FC7F8F4300A4BD5
:10384C001B68DB685B68D7F8F4209A42BAD1B5469E
:10385C0005E000BF02E000BF00E000BFB54607F581
:10386C008277BD46BDE8F0836019002080B483B038
:10387C0000AF7860034A7B68136000BF0C37BD460D
:10388C0080BC7047E81A0020B0B592B002AFB960A6
:10389C007B600346FB731346BB810023FB87BB890C
:1038AC00FB86FB7B012B09D107F11403364A1C461E
:1038BC0015460FCD0FC42B6823705BE0FB7B002BF0
:1038CC000BD107F11403314A1C4613460FCB07C426
:1038DC00238002341B0C23704CE0002350E007F1D2
:1038EC001402FB8E1946B86800F036FCB863BB6B4B
:1038FC00002B01D1002343E0FB8E1A46B968B86B4C
:10390C0000F0A9FC0346FB86FA8E07F1280300930E
:10391C001346BA6B1E491F4800F04AFC07F12803F6
:10392C00184607F02FF903467B8602E0BB6B013388
:10393C00BB63BB6B1B780A2BF8D1BB6B0133BB632E
:10394C000023BB860DE0BB8EBA6B1A44FB8F591C4F
:10395C00F98719467B680B4412781A70BB8E0133B9
:10396C00BB86BA8E7B8E9A42EDD3BB6B0133BB63A5
:10397C00BB6BBB60FA8FB7F850309A42AFD30123C0
:10398C0018464037BD46B0BDB8DD0008CCDD000898
:10399C00DCDD0008E0DD000880B58CB002AF78609B
:1039AC000B467B807B88234A1946786800F0D4FB51
:1039BC0078627B881A467968786A00F04CFC03467A
:1039CC007B847A8C07F11803009313467A6A1A49A0
:1039DC00194800F0EDFB07F11803184607F0D2F870
:1039EC000246164B1B6892B2A3F8BA247B8C124A7F
:1039FC001946786A00F0B0FB78627B6A01337B620F
:103A0C007A8C07F10C03009313467A6A0C490A4826
:103A1C0000F0CEFB07F10C03184607F0B3F8024692
:103A2C00064B1B6892B2A3F838240123184628379A
:103A3C00BD4680BDE4DD0008E0DD0008E81A00208A
:103A4C00DCDD000880B584B002AF78600B467B806B
:103A5C00094B1B6803F23A41074B1B68B3F8BA34A5
:103A6C007A8800930B4679680020FFF70DFF034618
:103A7C0018460837BD4680BDE81A002080B584B0D2
:103A8C0002AF78600B467B80094B1B6803F1380151
:103A9C00074B1B68B3F838347A8800930B46796867
:103AAC000120FFF7F1FE034618460837BD4680BDDE
:103ABC00E81A002080B582B000AF78600B467B809E
:103ACC007B8819467868FFF767FF0346002B01D106
:103ADC0000232BE0174B1B6838334FF48062002116
:103AEC00184607F0BBF9134B1B6803F23A438022CC
:103AFC000021184607F0B2F97B8819467868FFF761
:103B0C00A1FF0346002B01D100230FE07B8819464F
:103B1C007868FFF7B3FF0346002B01D1002305E0C3
:103B2C00044B1B68012283F82C200123184608370C
:103B3C00BD4680BDE81A002080B582B002AF4FF4BC
:103B4C00FA630093012301220D490E48FEF75CFC39
:103B5C000346012B08D10C4B1B6801229A760B48AB
:103B6C00FDF7B0F9012307E00948FDF7ABF9064B67
:103B7C001B6800229A7600231846BD4680BD00BF04
:103B8C00F4DD000804DE0008E81A002014DE00084A
:103B9C0034DE000880B584B002AF4FF4FA630093B2
:103BAC000123012216491748FEF72EFC0346FB7130
:103BBC00FB79012B04D11448FDF784F901231BE098
:103BCC004FF4FA6300930123012210490D48FEF7CC
:103BDC001BFC0346FB71FB79012B04D10A48FDF752
:103BEC0071F9012308E0FB799BB21846FDF782F9C5
:103BFC000748FDF767F9002318460837BD4680BD16
:103C0C0058DE000868DE000878DE000890DE000848
:103C1C0098DE000880B584B002AF78607A680E49EF
:103C2C000E4807F0BFFC4FF47A7300930123012276
:103C3C000B490A48FEF7E8FB0346012B04D109485F
:103C4C00FDF740F9012303E00748FDF73BF900239A
:103C5C0018460837BD4680BDACDE0008EC1A0020C3
:103C6C00C0DE0008C4DE0008E4DE000880B582B0C7
:103C7C0002AF4FF4FA6300930123012209490A4869
:103C8C00FEF7C2FB0346002B04D00848FDF71AF9D7
:103C9C00012303E00648FDF715F900231846BD463D
:103CAC0080BD00BFC0DE000800DF000810DF000888
:103CBC0030DF000880B584B002AF3F4B1B681B6936
:103CCC001846FCF73DFA0346FB71FB791A463B4953
:103CDC003B4807F067FC4FF4FA6300930123012281
:103CEC003E213748FEF790FB0346012B01D0002301
:103CFC005DE0314B1B681B691A463249304807F0AE
:103D0C0051FC4FF47A730093012301222E492C4865
:103D1C00FEF77AFB0346012B01D0002347E0264B2C
:103D2C001B685B691846FCF70BFA0346BB71BB7941
:103D3C001A462649224807F035FC4FF4FA630093E3
:103D4C00012301223E211E48FEF75EFB0346012B98
:103D5C0001D000232BE0184B1B685B691A461949EC
:103D6C00174807F01FFC4FF4FA630093012301225C
:103D7C0015491348FEF748FB0346012B01D00023DD
:103D8C0015E013490E4807F00DFC4FF47A730093BD
:103D9C00012301220C490A48FEF736FB0346002B8F
:103DAC0001D1002303E00B48FDF78CF801231846E2
:103DBC000837BD4680BD00BFE81A00204CDF000864
:103DCC00EC1A002064DF0008C0DE000868DF000881
:103DDC0080DF00089CDF000880B582B002AF144B76
:103DEC001B68DA68124B1B681B8B1946104B1B683F
:103DFC001B8D00930B460F490F4807F0D3FB4FF474
:103E0C00FA630093012301220C490B48FEF7FCFADC
:103E1C000346012B04D10A48FDF754F8012303E0B3
:103E2C000848FDF74FF800231846BD4680BD00BF7B
:103E3C00E81A0020B4DF0008EC1A0020D4DF0008D8
:103E4C00E8DF000804E0000880B582B002AF002073
:103E5C00FEF72EFB0346002B20D102F047FD024655
:103E6C001C4B1B68D31A44F62062934214D902F0FF
:103E7C003DFD0346174A13604FF4FA630093012388
:103E8C00012215491548FEF7BFFA1548FDF71AF837
:103E9C0041F2883002F034FD012318E00120FEF7D6
:103EAC0007FB0346002B01D1022310E00220FEF792
:103EBC00FFFA0346002B01D1032308E00320FEF791
:103ECC00F7FA0346002B01D1042300E00023184627
:103EDC00BD4680BDEC1E0020C0DE000820E00008BE
:103EEC002CE0000880B500AFFFF7AEFF0346002BB7
:103EFC0001D0002332E0FFF74DFE0346002B01D129
:103F0C0000232BE0164B1B685B6A1846FFF782FEFA
:103F1C000346002B0BD1FFF70FFE0346002B02D0FC
:103F2C0000F020F801E0FFF7A1FE002316E0FFF7F8
:103F3C00C1FE0346002B01D100230FE0FFF74CFF1D
:103F4C000346002B05D14FF4FA7002F0D9FC002384
:103F5C0004E0034B1B6801229A760123184680BDAE
:103F6C00E81A002080B582B002AF4FF4FA630093D8
:103F7C000123012212491348FEF746FA0346012B8E
:103F8C0001D0002319E0FFF771FE0346002B01D18D
:103F9C00002312E04FF4FA630093012301220A4933
:103FAC000A48FEF731FA0346012B01D0002304E046
:103FBC00074B1B6800229A7601231846BD4680BD2C
:103FCC00F4DD00083CE0000850E0000860E0000868
:103FDC00E81A002080B588B002AFF860B9601346CB
:103FEC00FB800023FB75F868FCF7AAF80346BB7549
:103FFC00BB7D1A462D492E4807F0D4FA4FF4FA63CC
:10400C000093012301223E212948FEF7FDF90346C6
:10401C00012B01D0002345E04FF4FA6300930123F8
:10402C0001222449F868FEF7EFF90346012B01D071
:10403C00002337E0FB881A461F491D4807F0B2FAE7
:10404C004FF4FA630093012301223E211848FEF736
:10405C00DBF90346012B01D0002323E0FA884FF64D
:10406C00FF73B968154805F0A1FD4FF4FA611148CA
:10407C00FEF710F90346FB75FEF70CFAFB7D012BDE
:10408C0001D000230EE04FF4FA63009301230122C8
:10409C000B490C48FEF7B8F90346012B01D000235D
:1040AC0000E0012318461837BD4680BD70E00008BB
:1040BC00EC1A0020C0DE000884E00008A4350020C3
:1040CC009CE00008ACE0000880B586B002AF7860D8
:1040DC007868FCF735F80346FB73FB7B1A461949E5
:1040EC00194807F05FFA4FF4FA6300930123012299
:1040FC003E211548FEF788F90346012B01D0002319
:10410C001CE04FF4FA630093012301220F497868F5
:10411C00FEF77AF90346012B01D000230EE04FF491
:10412C00FA6300930123012209490A48FEF76CF94E
:10413C000346012B01D0002300E001231846103761
:10414C00BD4680BDC0E00008EC1A0020C0DE0008AF
:10415C00D8E00008E8E0000880B586B000AFF86051
:10416C000B467A607B817868FBF7EAFF03467B7528
:10417C000023FB8211E0FB8AFA6813447A7D79688C
:10418C00184606F04DFE0346002B03D1FB8AFA6855
:10419C00134409E0FB8A0133FB827A897B7DD21AB6
:1041AC00FB8A9A42E7DA002318461837BD4680BDD1
:1041BC0080B588B000AFF860B9607A607B80F86831
:1041CC00FBF7BEFF0346BB767B88FA681946786816
:1041DC00FFF7C2FFF861FB69002B01D1002336E029
:1041EC00BB7EFA691344FB617B881A467968F869CF
:1041FC0000F031F803467B767B7E9BB2BA68194699
:10420C00F869FFF7A9FF78617B69002B03D0FA6985
:10421C007B699A4201D3002319E00023FB760BE063
:10422C00FB7E5A1CFA761A46BB6A1344FA6912785A
:10423C001A70FB690133FB61FA697B699A42EFD111
:10424C00FB7EBA6A134400221A70FB7E9BB218469E
:10425C002037BD4680BD80B485B000AFF860B96032
:10426C001346FB80FA68BB68D31A9BB2FA88D31A40
:10427C009BB218461437BD4680BC704780B485B0DD
:10428C0000AF78600023FB817B681B781B021AB29D
:10429C007B6801331B781BB213431BB2FB81FB8978
:1042AC0018461437BD4680BC704780B485B000AF4B
:1042BC00786039607B68FB600023FB720EE0FB7A50
:1042CC00C3F103031A463B681344FA68D2B21A705E
:1042DC00FB681B0AFB60FB7A0133FB72FB7A032B36
:1042EC00EDD900BF00BF1437BD4680BC704780B409
:1042FC0085B000AF78600023FB607B681B781A06E2
:10430C007B6801331B781B041A437B6802331B78D0
:10431C001B0213437A68033212781343FB60FB6869
:10432C0018461437BD4680BC7047000080B483B07B
:10433C0000AF7860034A7B68136000BF0C37BD4642
:10434C0080BC7047F01E002080B485B000AF0346DF
:10435C00FB710023FB73FB79102B00F2F18001A29F
:10436C0052F823F0B5430008CD430008154400086B
:10437C002D440008E5430008FD43000845440008AF
:10438C005D4400088D44000875440008A5440008ED
:10439C00BD440008D5440008ED440008054500085C
:1043AC001D45000835450008694B1B681B7C03F054
:1043BC000103DBB2002B14BF01230023FB73C0E00D
:1043CC00634B1B681B7C03F00203DBB2002B14BF96
:1043DC0001230023FB73B4E05D4B1B681B7C03F0D3
:1043EC001003DBB2002B14BF01230023FB73A8E0E6
:1043FC00574B1B681B7C03F02003DBB2002B14BF54
:10440C0001230023FB739CE0514B1B681B7C03F0C6
:10441C000403DBB2002B14BF01230023FB7390E0D9
:10442C004B4B1B681B7C03F00803DBB2002B14BF47
:10443C0001230023FB7384E0454B1B681B7C03F0BA
:10444C004003DBB2002B14BF01230023FB7378E085
:10445C003F4B1B685B7C03F00103DBB2002B14BFEA
:10446C0001230023FB736CE0394B1B685B7C03F06E
:10447C000203DBB2002B14BF01230023FB7360E0AB
:10448C00334B1B681B7C23F07F03DBB2002B14BF68
:10449C0001230023FB7354E02D4B1B685B7C03F062
:1044AC000403DBB2002B14BF01230023FB7348E091
:1044BC00274B1B685B7C03F00803DBB2002B14BF9B
:1044CC0001230023FB733CE0214B1B685B7C03F056
:1044DC001003DBB2002B14BF01230023FB7330E06D
:1044EC001B4B1B685B7C03F02003DBB2002B14BF5F
:1044FC0001230023FB7324E0154B1B685B7C03F04A
:10450C004003DBB2002B14BF01230023FB7318E024
:10451C000F4B1B685B7C23F07F03DBB2002B14BFBB
:10452C0001230023FB730CE0094B1B689B7C03F0FD
:10453C000103DBB2002B14BF01230023FB7300E04B
:10454C0000BFFB7B18461437BD4680BC704700BFCC
:10455C00F01E002080B483B000AF03460A46FB7106
:10456C001346BB71FB79102B00F2E18001A252F8CB
:10457C0023F000BFC5450008DB4500081D460008B8
:10458C0033460008F1450008074600084946000874
:10459C005F4600088B46000875460008A1460008D7
:1045AC00B7460008CD460008E3460008F946000867
:1045BC000F47000825470008604B1A68BB7903F0C9
:1045CC000103D9B2137C61F300031374B0E05B4BAD
:1045DC001A68BB7903F00103D9B2137C61F3410370
:1045EC001374A5E0554B1A68BB7903F00103D9B2DB
:1045FC00137C61F3041313749AE0504B1A68BB7963
:10460C0003F00103D9B2137C61F3451313748FE0EB
:10461C004A4B1A68BB7903F00103D9B2137C61F3DE
:10462C008203137484E0454B1A68BB7903F00103D1
:10463C00D9B2137C61F3C303137479E03F4B1A684E
:10464C00BB7903F00103D9B2137C61F386131374A5
:10465C006EE03A4B1A68BB7903F00103D9B2537C74
:10466C0061F30003537463E0344B1A68BB7903F0B5
:10467C000103D9B2537C61F34103537458E02F4BBF
:10468C001A68BB7903F00103D9B2137C61F3C71329
:10469C0013744DE0294B1A68BB7903F00103D9B2AE
:1046AC00537C61F38203537442E0244B1A68BB7948
:1046BC0003F00103D9B2537C61F3C303537437E0A5
:1046CC001E4B1A68BB7903F00103D9B2537C61F31A
:1046DC00041353742CE0194B1A68BB7903F00103D3
:1046EC00D9B2537C61F34513537421E0134B1A6810
:1046FC00BB7903F00103D9B2537C61F38613537475
:10470C0016E00E4B1A68BB7903F00103D9B2537C47
:10471C0061F3C71353740BE0084B1A68BB7903F0B1
:10472C000103D9B2937C61F30003937400E000BFE2
:10473C0000BF0C37BD4680BC704700BFF01E002088
:10474C0080B483B000AF0346FB71FB79502B04D9C6
:10475C00FB79FF2B01D0012300E0002318460C3716
:10476C00BD4680BC7047000080B584B000AF3B1DD7
:10477C0000221A605A609A60184B194A1A60174B3B
:10478C0000229A60154B01221A73144B00221A75E1
:10479C00124B4FF46022DA61104B00225A600F4B1F
:1047AC0001221A610D4802F0CFF80346002B01D00C
:1047BC0000F094FD06237B600123BB600723FB60A4
:1047CC003B1D1946054802F021FB0346002B01D086
:1047DC0000F084FD00BF1037BD4680BDF41E0020E4
:1047EC000024014080B588B000AF786007F1100359
:1047FC0000221A605A609A60DA607B681B68184A5B
:10480C00934229D1174B9B69164A43F40073936169
:10481C00144B9B6903F40073FB60FB68114B9B69A1
:10482C00104A43F0040393610E4B9B6903F004039D
:10483C00BB60BB6840233B6103237B6107F1100322
:10484C001946094803F02EF800220021122002F02C
:10485C0050FD122002F069FD00BF2037BD4680BD1F
:10486C0000240140001002400008014080B485B0D3
:10487C0000AF786039600023BB60BB68DB43BB6072
:10488C000023FB6011E0FB687A6813441B781A461E
:10489C00BB685340DBB20A4A52F82320BB681B0AA0
:1048AC005340BB60FB680133FB60FA683B689A427B
:1048BC00E9DBBB68DB4318461437BD4680BC704748
:1048CC000800002080B582B000AF144B5B69134A1E
:1048DC0043F001035361114B5B6903F001037B60EF
:1048EC007B68002200210D2002F003FD0D2002F058
:1048FC001CFD002200210F2002F0FBFC0F2002F017
:10490C0014FD00220021102002F0F3FC102002F014
:10491C000CFD00BF0837BD4680BD00BF0010024033
:10492C0080B487B000AF78600023FB750BE0FB7D93
:10493C007A681A44FB7D127818333B4403F80C2C2C
:10494C00FB7D0133FB75FB7D032BF0D9FB683B61D1
:10495C003B6918461C37BD4680BC704780B485B097
:10496C0000AFF860B9601346FB80FB681A68BB683F
:10497C001A60FB680433FB60BB680433BB60FB88C4
:10498C005A1EFA80002B00D0EFE700BF00BF14378F
:10499C00BD4680BC704780B584B000AF786007F12D
:1049AC000803012219467868FFF7D8FF07F10803BE
:1049BC001846FFF7B5FFF860FB6818461037BD4680
:1049CC0080BD000080B588B000AF07F11003002255
:1049DC001A605A609A60DA60584B9B69574A43F0E8
:1049EC0010039361554B9B6903F01003FB60FB684C
:1049FC00524B9B69514A43F0200393614F4B9B6987
:104A0C0003F02003BB60BB684C4B9B694B4A43F0E3
:104A1C0004039361494B9B6903F004037B607B683F
:104A2C00464B9B69454A43F008039361434B9B6992
:104A3C0003F008033B603B6800224FF460414048A0
:104A4C0003F0B4F8002249F690413E4803F0AEF86A
:104A5C00002243F203013C4803F0A8F84FF46043F2
:104A6C003B6101237B610023BB610223FB6107F1E6
:104A7C0010031946324802F015FF01233B61334BFA
:104A8C007B610023BB6107F1100319462D4802F02E
:104A9C0009FF49F690433B6101237B610023BB6115
:104AAC000223FB6107F110031946264802F0FAFEB7
:104ABC004FF448733B61264B7B610023BB6107F1CC
:104ACC00100319461F4802F0EDFE43F203033B614D
:104ADC0001237B610023BB610223FB6107F11003FF
:104AEC001946194802F0DEFE4CF204033B61184BE8
:104AFC007B610023BB6107F110031946124802F0D9
:104B0C00D1FE00220021062002F0F3FB062002F069
:104B1C000CFC00220021172002F0EBFB172002F006
:104B2C0004FC00220021282002F0E3FB282002F0E4
:104B3C00FCFB00BF2037BD4680BD00BF001002400B
:104B4C000010014000080140000C01400000211041
:104B5C000000111080B500AF124B134A1A60114BB4
:104B6C00124A5A600F4B00229A600E4B0022DA60F8
:104B7C000C4B4FF480421A610A4B00225A61094BCC
:104B8C0000229A61074B0022DA61064B00221A625E
:104B9C00044803F055F80346002B01D000F09EFBAF
:104BAC0000BF80BD241F002000540040801A060066
:104BBC0080B58AB000AF786007F1140300221A6048
:104BCC005A609A60DA607B681B681D4A934232D146
:104BDC001C4B9B691B4A43F008039361194B9B695F
:104BEC0003F008033B613B694FF440737B61122374
:104BFC00BB6103233B6207F114031946124802F010
:104C0C0051FE124B5B687B627B6A43F0E0637B6214
:104C1C007B6A43F002037B620C4A7B6A5360094B4C
:104C2C00DB69084A43F40013D361064BDB6903F4D8
:104C3C000013FB60FB6800BF2837BD4680BD00BF7A
:104C4C000054004000100240000C014000000140E4
:104C5C0084B080B582B000AF07F1100C8CE80F0067
:104C6C00782006F0CDF803467B607B68184607F188
:104C7C0010037222194606F0E3F87B6800225A678B
:104C8C007B6818460837BD46BDE8804004B07047C5
:104C9C0090B59DB01AAF0C2006F0B2F803467B60BD
:104CAC00154C684604F110036222194606F0C8F848
:104CBC0094E80F00FFF7CCFF02467B681A600E4C9D
:104CCC00684604F110036222194606F0B9F894E81C
:104CDC000F00FFF7BDFF02467B685A607B681B68BC
:104CEC007A6852685A677B6800229A607B6818461B
:104CFC000C37BD4690BD00BF0804002084B090B5B1
:104D0C009FB01AAF786007F1240080E80E007B6832
:104D1C005B68184607F124037222194606F090F8D6
:104D2C000F4C684604F110036222194606F088F80D
:104D3C0094E80F00FFF78CFFF8607B685B68FA68FB
:104D4C005A677B68FA685A607B689B685A1C7B6858
:104D5C009A6000BF1437BD46BDE8904004B0704760
:104D6C000804002080B582B000AF78600B467B80D1
:104D7C007B681B68104A934203D17B881846FDF769
:104D8C00BBF97B681A680D4B1B681B689A4203D1F0
:104D9C007B881846FBF770FF7B681A68084B1B680A
:104DAC001B689A4203D17B881846FEF78DFB00BF27
:104DBC000837BD4680BD00BF00380140000600200A
:104DCC005819002080B582B000AF0346FB80FB88E9
:104DDC00012B0FD10220FDF739F903461A46184B67
:104DEC009A71FEF747FA012000F054F801210320D4
:104DFC00FFF7B0FBFB88B3F5804F01D1FDF7E6FE62
:104E0C00FB88B3F5004F01D1FDF742FFFB88B3F5EA
:104E1C00007F01D1FDF7E8FFFB88B3F5807F01D15E
:104E2C00FDF794FFFB88202B01D1FEF72DF8FB88B2
:104E3C00042B01D1FEF734F800BF0837BD4680BD06
:104E4C007C04002080B582B000AF78607B681A6863
:104E5C000D4B1B689A4212D1786801F003FF024691
:104E6C000A4B1B681344094A1360094B1B889BB2FD
:104E7C0001339AB2064B1A80044800F003FA00BFC3
:104E8C000837BD4680BD00BFF41E00204C35002005
:104E9C005035002080B483B000AF0346FB71044A48
:104EAC00FB79137000BF0C37BD4680BC704700BF48
:104EBC007C04002080B400AF024B1B781846BD4622
:104ECC0080BC70477C040020B0B5ADF5087D1AAFEE
:104EDC0001F0B4FC00F07AF9FFF774FDFFF7F2FC77
:104EEC0000F0F8FB00F020FCFFF734FE00F046FC6D
:104EFC0000F082FBFFF738FCFFF7CAFE0346A14A1D
:104F0C001360002387F8B7311AE006F0FDFA024669
:104F1C009D4B83FB02131344D911D317C91A0B46AB
:104F2C001B025B1AD11A97F8B731CAB203F5DC73BE
:104F3C003B4403F8682C97F8B731013387F8B73145
:104F4C0097F8B731632BE0D907F1DC03722200210B
:104F5C00184605F083FF512387F8DC30012387F8CE
:104F6C00E0300A23A7F8E230012387F8E43001236C
:104F7C0087F8E53007F5A87107F1DC030C336422E0
:104F8C00184605F05DFF7F4B1C68684607F1E80387
:104F9C006622194605F054FF07F1DC030ECB2046C0
:104FAC00FFF7ACFE002387F8B6311AE006F0ACFA36
:104FBC000246754B83FB02131344D911D317C91A3C
:104FCC000B461B025B1AD11A97F8B631C9B207F51A
:104FDC00DC72A2F5A272D15497F8B631013387F87E
:104FEC00B63197F8B631632BE0D907F5DC73A3F52E
:104FFC00DC73184672231A46002105F02FFF07F5C3
:10500C00DC73A3F5DC7352221A7007F5DC73A3F57D
:10501C00DC7301221A7107F5DC73A3F5DC730A2229
:10502C00DA8007F5DC73A3F5DC7301221A7207F53D
:10503C00DC73A3F5DC7301225A7207F174013B4651
:10504C000C336422184605F0FBFE4E4B1D6807F529
:10505C00DC73A3F5DC74684604F10C036622194674
:10506C0005F0EEFE94E80E002846FFF747FE454B90
:10507C001B68464AD3604648FFF78DFC034618462A
:10508C00FBF770F80346DAB2404B5A70414B424A78
:10509C00DA60404B40F25B721A833E4B3F4A1A6116
:1050AC00012005F0ADFE03461A463A4B5A61394BC6
:1050BC005B69364A52783A49184606F073FA354B12
:1050CC000A221A85012005F09BFE03461A46314B35
:1050DC005A62304B5B6A2D4A52783149184606F0B9
:1050EC0061FA2C4B01221A632A4B00229A76294B27
:1050FC002C4A03F2BC4311464FF40862184605F0E3
:10510C009FFE294801F0F8FC2048FFF70FF9FBF748
:10511C0015FB264AD3796FF30003D37124491B483E
:10512C00FBF77AFD1B4A23492348FCF7ADFF1949CD
:10513C001648FBF795FB17491448FBF729FB1F484A
:10514C00FBF730FD1148FBF73BFD1D48FDF7B4FEA6
:10515C0000F0EEFD0D4BDB681A4A19461A48FDF7B4
:10516C00A5FC0A4A12491848FBF7D8F9FBF724FBAF
:10517C00FBF7C8FBFBF74CFAFBF7E6FAC82001F08B
:10518C00BFFBF3E734350020818080807C04002055
:10519C0000FC0108781F0020F8E0000810E100086E
:1051AC0024E10008B42C0020F41E0020403500201F
:1051BC00383500207C360020A43500203424002013
:1051CC00241F0020840400204835002080B594B0B2
:1051DC0000AF07F1280328220021184605F03EFEF7
:1051EC0007F1140300221A605A609A60DA601A619F
:1051FC003B1D00221A605A609A60DA600123BB6280
:10520C004FF48033FB6200233B630123BB63022317
:10521C007B644FF48033BB644FF4E013FB6407F101
:10522C002803184603F040FD0346002B01D000F084
:10523C0055F80F237B610223BB610023FB614FF404
:10524C0080633B6200237B6207F114030221184642
:10525C0003F0ACFF0346002B01D000F03FF8022313
:10526C007B604FF40043FB603B1D184604F02CF9A7
:10527C000346002B01D000F031F800BF5037BD467B
:10528C0080BD000080B483B000AF7860104B1B88E9
:10529C009BB2B3F57A7F16D17B681A6813465B0014
:1052AC001A440C4BA3FB0213D21A52081344DB0A08
:1052BC009BB232339AB2084B5A807B6800221A6038
:1052CC00034B00221A8000BF0C37BD4680BC7047D0
:1052DC0050350020010110007C04002080B400AF88
:1052EC0072B600BFFEE7000080B485B000AF154B6E
:1052FC009B69144A43F001039361124B9B6903F0C1
:10530C000103BB60BB680F4BDB690E4A43F0805353
:10531C00D3610C4BDB6903F080537B607B680A4BD9
:10532C005B68FB60FB6823F0E063FB60FB6843F0A9
:10533C000073FB60044AFB68536000BF1437BD4622
:10534C0080BC7047001002400000014080B400AFE8
:10535C00FEE780B400AFFEE780B400AFFEE780B498
:10536C0000AFFEE780B400AFFEE780B400AF00BF33
:10537C00BD4680BC704780B400AF00BFBD4680BC4A
:10538C00704780B400AF00BFBD4680BC704780B58D
:10539C0000AF01F099FA00BF80BD80B500AF0120CD
:1053AC0002F036FC00BF80BD80B500AF024802F0B1
:1053BC0045F900BF80BD00BF0437002080B500AFA9
:1053CC00024802F03BF900BF80BD00BF7C360020D4
:1053DC0080B500AF024802F031F900BF80BD00BFBC
:1053EC00C036002080B500AF024801F047FC00BF7A
:1053FC0080BD00BFF41E002080B500AF202002F05D
:10540C0007FC4FF4807002F003FC4FF4007002F0C4
:10541C00FFFB00BF80BD000080B500AF024804F068
:10542C00A5FC00BF80BD00BFA435002080B500AF37
:10543C00024804F09BFC00BF80BD00BFEC3500208F
:10544C0080B500AF024804F091FC00BF80BD00BFE6
:10545C003436002080B500AF4FF4804002F0D8FB0A
:10546C004FF4004002F0D4FB00BF80BD80B400AF0D
:10547C0001231846BD4680BC704780B582B000AF92
:10548C007860396005F082FB034616221A604FF0F3
:10549C00FF3318460837BD4680BD80B582B000AFDB
:1054AC0078604FF0FF317868FFF7E7FFFEE780B5D3
:1054BC0086B000AFF860B9607A6000237B610AE0C7
:1054CC00AFF300800146BB685A1CBA60CAB21A70AE
:1054DC007B6901337B617A697B689A42F0DB7B687C
:1054EC0018461837BD4680BD80B586B000AFF86051
:1054FC00B9607A6000237B6109E0BB685A1CBA6012
:10550C001B781846AFF300807B6901337B617A69A5
:10551C007B689A42F1DB7B6818461837BD4680BD24
:10552C0080B483B000AF78604FF0FF3318460C376F
:10553C00BD4680BC704780B483B000AF78603960E2
:10554C003B684FF400525A60002318460C37BD4696
:10555C0080BC704780B483B000AF786001231846DC
:10556C000C37BD4680BC704780B485B000AFF86086
:10557C00B9607A60002318461437BD4680BC70476A
:10558C0080B586B000AF7860144A154BD31A7B6196
:10559C007B693B61134B1B68002B02D1114B124AE8
:1055AC001A60104B1A687B6813443A699A4207D206
:1055BC0005F0ECFA03460C221A604FF0FF3309E0B9
:1055CC00084B1B68FB60074B1A687B681344054A41
:1055DC001360FB6818461837BD4680BD005000208C
:1055EC0000040000583500208837002080B400AF3C
:1055FC0000BFBD4680BC704780B586B000AF07F1D8
:10560C00080300221A605A609A60DA603B46002256
:10561C001A605A601E4B1F4A1A601D4B47225A6073
:10562C001B4B00229A601A4B4FF6FE72DA60184B35
:10563C0000221A61164B00225A61154B00229A6106
:10564C00134803F0F7FF0346002B01D0FFF746FE8B
:10565C004FF48053BB6007F1080319460C4804F063
:10566C0038F80346002B01D0FFF738FE00233B60CF
:10567C0000237B603B461946054804F0E9F90346D4
:10568C00002B01D0FFF72AFE00BF1837BD4680BDA6
:10569C005C350020002C014080B485B000AF7860F0
:1056AC007B681B68094A93420BD1094B9B69084ADA
:1056BC0043F400639361064B9B6903F40063FB6046
:1056CC00FB6800BF1437BD4680BC7047002C0140FE
:1056DC000010024080B500AF114B124A1A60104BFB
:1056EC004FF4E1325A600E4B00229A600C4B0022B0
:1056FC00DA600B4B00221A61094B0C225A61084BE1
:10570C0000229A61064B0022DA61054804F0FEF98A
:10571C000346002B01D0FFF7E1FD00BF80BD00BFA9
:10572C00A43500200038014080B500AF114B124A5F
:10573C001A60104B4FF416525A600E4B00229A60AE
:10574C000C4B0022DA600B4B00221A61094B0C2225
:10575C005A61084B00229A61064B0022DA61054817
:10576C0004F0D4F90346002B01D0FFF7B7FD00BFBE
:10577C0080BD00BFEC3500200044004080B500AF78
:10578C00114B124A1A60104B4FF4E1325A600E4B17
:10579C0000229A600C4B0022DA600B4B00221A613B
:1057AC00094B0C225A61084B00229A61064B0022CD
:1057BC00DA61054804F0AAF90346002B01D0FFF783
:1057CC008DFD00BF80BD00BF343600200048004076
:1057DC0080B58EB000AF786007F1240300221A6008
:1057EC005A609A60DA607B681B689E4A93426CD15F
:1057FC009D4B9B699C4A43F4804393619A4B9B69F4
:10580C0003F480433B623B6A974B9B69964A43F097
:10581C0008039361944B9B6903F00803FB61FB69DC
:10582C0040237B620223BB6203233B6307F1240307
:10583C0019468E4802F036F880237B620023BB6247
:10584C000023FB6207F124031946884802F02AF86A
:10585C00874B5B687B637B6B43F0E0637B637B6BA9
:10586C0043F004037B63824A7B6B5360814B824A17
:10587C001A60804B00225A607E4B00229A607D4B4E
:10588C008022DA607B4B00221A617A4B00225A612B
:10589C00784B00229A61774B0022DA61754801F04F
:1058AC005FFD0346002B01D0FFF718FD7B68714AA2
:1058BC00DA63704A7B68536200220121252001F0D3
:1058CC0018FD252001F031FDC8E07B681B686B4A90
:1058DC0093425ED1644BDB69634A43F40033D3617A
:1058EC00614BDB6903F40033BB61BB695E4B9B69A5
:1058FC005D4A43F0040393615B4B9B6903F0040323
:10590C007B617B6904237B620223BB6203233B63C1
:10591C0007F1240319465A4801F0C4FF08237B629F
:10592C000023BB620023FB6207F124031946544891
:10593C0001F0B8FF534B544A1A60524B00225A6084
:10594C00504B00229A604F4B8022DA604D4B002264
:10595C001A614C4B00225A614A4B00229A61494B06
:10596C000022DA61474801F0FBFC0346002B01D012
:10597C00FFF7B4FC7B68434ADA63424A7B685362A4
:10598C0000220121262001F0B4FC262001F0CDFCE0
:10599C0064E07B681B683D4A93425FD1324BDB6904
:1059AC00314A43F48023D3612F4BDB6903F480230A
:1059BC003B613B692C4B9B692B4A43F00803936179
:1059CC00294B9B6903F00803FB60FB684FF4806371
:1059DC007B620223BB6203233B6307F1240319465A
:1059EC00224801F05FFF4FF400637B620023BB622F
:1059FC000023FB6207F1240319461C4801F052FFF7
:105A0C00234B244A1A60224B00225A60204B00225E
:105A1C009A601F4B8022DA601D4B00221A611C4BCE
:105A2C0000225A611A4B00229A61194B0022DA614A
:105A3C00174801F095FC0346002B01D0FFF74EFCF4
:105A4C007B68134ADA63124A7B6853620022012195
:105A5C00272001F04EFC272001F067FC00BF3837EF
:105A6C00BD4680BD0038014000100240000C0140D2
:105A7C00000001407C3600205800024000440040E9
:105A8C0000080140C03600206C0002400048004075
:105A9C00043700203000024080B500AF0C4B5B692E
:105AAC000B4A91880122184602F080F8084B9B693A
:105ABC00074AD1880022184602F078F8044BDB69BB
:105ACC00034A11890022184602F070F800BF80BD0D
